{
  "contractName": "WhatIs",
  "abi": [
    {
      "inputs": [],
      "payable": false,
      "stateMutability": "nonpayable",
      "type": "constructor"
    },
    {
      "anonymous": false,
      "inputs": [
        {
          "indexed": false,
          "internalType": "string",
          "name": "name",
          "type": "string"
        },
        {
          "indexed": false,
          "internalType": "uint256",
          "name": "id",
          "type": "uint256"
        }
      ],
      "name": "LogFetched",
      "type": "event"
    },
    {
      "anonymous": false,
      "inputs": [
        {
          "indexed": false,
          "internalType": "uint256",
          "name": "id",
          "type": "uint256"
        },
        {
          "indexed": false,
          "internalType": "string",
          "name": "name",
          "type": "string"
        },
        {
          "indexed": false,
          "internalType": "string",
          "name": "entry",
          "type": "string"
        }
      ],
      "name": "LogWhatCreated",
      "type": "event"
    },
    {
      "constant": true,
      "inputs": [
        {
          "internalType": "uint256",
          "name": "",
          "type": "uint256"
        },
        {
          "internalType": "uint256",
          "name": "",
          "type": "uint256"
        }
      ],
      "name": "acceptedEntries",
      "outputs": [
        {
          "internalType": "string",
          "name": "what",
          "type": "string"
        },
        {
          "internalType": "string",
          "name": "content",
          "type": "string"
        },
        {
          "internalType": "enum WhatIs.State",
          "name": "state",
          "type": "uint8"
        },
        {
          "internalType": "address",
          "name": "proposer",
          "type": "address"
        }
      ],
      "payable": false,
      "stateMutability": "view",
      "type": "function"
    },
    {
      "constant": true,
      "inputs": [
        {
          "internalType": "uint256",
          "name": "",
          "type": "uint256"
        }
      ],
      "name": "acceptedEntriesCount",
      "outputs": [
        {
          "internalType": "uint256",
          "name": "",
          "type": "uint256"
        }
      ],
      "payable": false,
      "stateMutability": "view",
      "type": "function"
    },
    {
      "constant": true,
      "inputs": [
        {
          "internalType": "string",
          "name": "",
          "type": "string"
        }
      ],
      "name": "ids",
      "outputs": [
        {
          "internalType": "uint256",
          "name": "",
          "type": "uint256"
        }
      ],
      "payable": false,
      "stateMutability": "view",
      "type": "function"
    },
    {
      "constant": true,
      "inputs": [],
      "name": "maxEntryBytes",
      "outputs": [
        {
          "internalType": "uint256",
          "name": "",
          "type": "uint256"
        }
      ],
      "payable": false,
      "stateMutability": "view",
      "type": "function"
    },
    {
      "constant": true,
      "inputs": [],
      "name": "owner",
      "outputs": [
        {
          "internalType": "address",
          "name": "",
          "type": "address"
        }
      ],
      "payable": false,
      "stateMutability": "view",
      "type": "function"
    },
    {
      "constant": true,
      "inputs": [
        {
          "internalType": "uint256",
          "name": "",
          "type": "uint256"
        },
        {
          "internalType": "address",
          "name": "",
          "type": "address"
        }
      ],
      "name": "ownership",
      "outputs": [
        {
          "internalType": "uint256",
          "name": "",
          "type": "uint256"
        }
      ],
      "payable": false,
      "stateMutability": "view",
      "type": "function"
    },
    {
      "constant": true,
      "inputs": [
        {
          "internalType": "uint256",
          "name": "",
          "type": "uint256"
        },
        {
          "internalType": "uint256",
          "name": "",
          "type": "uint256"
        }
      ],
      "name": "proposedEntries",
      "outputs": [
        {
          "internalType": "string",
          "name": "what",
          "type": "string"
        },
        {
          "internalType": "string",
          "name": "content",
          "type": "string"
        },
        {
          "internalType": "enum WhatIs.State",
          "name": "state",
          "type": "uint8"
        },
        {
          "internalType": "address",
          "name": "proposer",
          "type": "address"
        }
      ],
      "payable": false,
      "stateMutability": "view",
      "type": "function"
    },
    {
      "constant": true,
      "inputs": [
        {
          "internalType": "uint256",
          "name": "",
          "type": "uint256"
        }
      ],
      "name": "proposedEntriesCount",
      "outputs": [
        {
          "internalType": "uint256",
          "name": "",
          "type": "uint256"
        }
      ],
      "payable": false,
      "stateMutability": "view",
      "type": "function"
    },
    {
      "constant": true,
      "inputs": [
        {
          "internalType": "uint256",
          "name": "",
          "type": "uint256"
        },
        {
          "internalType": "uint256",
          "name": "",
          "type": "uint256"
        },
        {
          "internalType": "address",
          "name": "",
          "type": "address"
        }
      ],
      "name": "voted",
      "outputs": [
        {
          "internalType": "bool",
          "name": "",
          "type": "bool"
        }
      ],
      "payable": false,
      "stateMutability": "view",
      "type": "function"
    },
    {
      "constant": true,
      "inputs": [
        {
          "internalType": "uint256",
          "name": "",
          "type": "uint256"
        }
      ],
      "name": "votes",
      "outputs": [
        {
          "internalType": "uint256",
          "name": "",
          "type": "uint256"
        }
      ],
      "payable": false,
      "stateMutability": "view",
      "type": "function"
    },
    {
      "constant": true,
      "inputs": [],
      "name": "whatCount",
      "outputs": [
        {
          "internalType": "uint256",
          "name": "",
          "type": "uint256"
        }
      ],
      "payable": false,
      "stateMutability": "view",
      "type": "function"
    },
    {
      "constant": true,
      "inputs": [
        {
          "internalType": "uint256",
          "name": "",
          "type": "uint256"
        }
      ],
      "name": "whats",
      "outputs": [
        {
          "internalType": "string",
          "name": "name",
          "type": "string"
        },
        {
          "internalType": "enum WhatIs.State",
          "name": "state",
          "type": "uint8"
        }
      ],
      "payable": false,
      "stateMutability": "view",
      "type": "function"
    },
    {
      "constant": false,
      "inputs": [
        {
          "internalType": "string",
          "name": "_name",
          "type": "string"
        },
        {
          "internalType": "string",
          "name": "_entry",
          "type": "string"
        }
      ],
      "name": "createWhat",
      "outputs": [
        {
          "internalType": "bool",
          "name": "",
          "type": "bool"
        }
      ],
      "payable": false,
      "stateMutability": "nonpayable",
      "type": "function"
    },
    {
      "constant": false,
      "inputs": [
        {
          "internalType": "string",
          "name": "_name",
          "type": "string"
        }
      ],
      "name": "getWhatID",
      "outputs": [
        {
          "internalType": "uint256",
          "name": "",
          "type": "uint256"
        }
      ],
      "payable": false,
      "stateMutability": "nonpayable",
      "type": "function"
    },
    {
      "constant": false,
      "inputs": [],
      "name": "getWhatCount",
      "outputs": [
        {
          "internalType": "uint256",
          "name": "",
          "type": "uint256"
        }
      ],
      "payable": false,
      "stateMutability": "nonpayable",
      "type": "function"
    },
    {
      "constant": false,
      "inputs": [],
      "name": "advanceWhatCount",
      "outputs": [
        {
          "internalType": "uint256",
          "name": "",
          "type": "uint256"
        }
      ],
      "payable": false,
      "stateMutability": "nonpayable",
      "type": "function"
    },
    {
      "constant": false,
      "inputs": [
        {
          "internalType": "string",
          "name": "_name",
          "type": "string"
        },
        {
          "internalType": "string",
          "name": "_entry",
          "type": "string"
        }
      ],
      "name": "proposeEntry",
      "outputs": [
        {
          "internalType": "bool",
          "name": "",
          "type": "bool"
        }
      ],
      "payable": false,
      "stateMutability": "nonpayable",
      "type": "function"
    },
    {
      "constant": false,
      "inputs": [
        {
          "internalType": "string",
          "name": "_name",
          "type": "string"
        }
      ],
      "name": "vote",
      "outputs": [
        {
          "internalType": "bool",
          "name": "",
          "type": "bool"
        }
      ],
      "payable": false,
      "stateMutability": "nonpayable",
      "type": "function"
    },
    {
      "constant": false,
      "inputs": [],
      "name": "timeCall",
      "outputs": [
        {
          "internalType": "uint256",
          "name": "",
          "type": "uint256"
        }
      ],
      "payable": false,
      "stateMutability": "nonpayable",
      "type": "function"
    },
    {
      "constant": false,
      "inputs": [],
      "name": "endVote",
      "outputs": [
        {
          "internalType": "uint256",
          "name": "",
          "type": "uint256"
        }
      ],
      "payable": false,
      "stateMutability": "nonpayable",
      "type": "function"
    }
  ],
  "bytecode": "0x6080604052600a60025534801561001557600080fd5b50336000806101000a81548173ffffffffffffffffffffffffffffffffffffffff021916908373ffffffffffffffffffffffffffffffffffffffff16021790555060006001819055506121348061006d6000396000f3fe608060405234801561001057600080fd5b506004361061012c5760003560e01c806370418b4a116100ad578063ca014fcd11610071578063ca014fcd14610a69578063d4f1a5b214610ad9578063f9d7a0be14610b1b578063fc36e15b14610b5d578063fe73584414610c305761012c565b806370418b4a146107af5780638a08677d146107cd5780638da5cb5b1461089c578063a26cca93146108e6578063b922394614610a4b5761012c565b80633f82794c116100f45780633f82794c146105a65780634d5f0f02146106755780634e4f86d0146107315780634fd97f891461074f5780635df813301461076d5761012c565b80630c25b335146101315780632a527f0f1461014f5780632d8d83f7146102b4578063363e55ad146102d25780633ce167201461043c575b600080fd5b610139610c92565b6040518082815260200191505060405180910390f35b6101856004803603604081101561016557600080fd5b810190808035906020019092919080359060200190929190505050610c9a565b60405180806020018060200185600381111561019d57fe5b60ff1681526020018473ffffffffffffffffffffffffffffffffffffffff1673ffffffffffffffffffffffffffffffffffffffff168152602001838103835287818151815260200191508051906020019080838360005b8381101561020f5780820151818401526020810190506101f4565b50505050905090810190601f16801561023c5780820380516001836020036101000a031916815260200191505b50838103825286818151815260200191508051906020019080838360005b8381101561027557808201518184015260208101905061025a565b50505050905090810190601f1680156102a25780820380516001836020036101000a031916815260200191505b50965050505050505060405180910390f35b6102bc610e34565b6040518082815260200191505060405180910390f35b610422600480360360408110156102e857600080fd5b810190808035906020019064010000000081111561030557600080fd5b82018360208201111561031757600080fd5b8035906020019184600183028401116401000000008311171561033957600080fd5b91908080601f016020809104026020016040519081016040528093929190818152602001838380828437600081840152601f19601f8201169050808301925050505050505091929192908035906020019064010000000081111561039c57600080fd5b8201836020820111156103ae57600080fd5b803590602001918460018302840111640100000000831117156103d057600080fd5b91908080601f016020809104026020016040519081016040528093929190818152602001838380828437600081840152601f19601f820116905080830192505050505050509192919290505050610e3a565b604051808215151515815260200191505060405180910390f35b61058c6004803603604081101561045257600080fd5b810190808035906020019064010000000081111561046f57600080fd5b82018360208201111561048157600080fd5b803590602001918460018302840111640100000000831117156104a357600080fd5b91908080601f016020809104026020016040519081016040528093929190818152602001838380828437600081840152601f19601f8201169050808301925050505050505091929192908035906020019064010000000081111561050657600080fd5b82018360208201111561051857600080fd5b8035906020019184600183028401116401000000008311171561053a57600080fd5b91908080601f016020809104026020016040519081016040528093929190818152602001838380828437600081840152601f19601f8201169050808301925050505050505091929192905050506113e9565b604051808215151515815260200191505060405180910390f35b61065f600480360360208110156105bc57600080fd5b81019080803590602001906401000000008111156105d957600080fd5b8201836020820111156105eb57600080fd5b8035906020019184600183028401116401000000008311171561060d57600080fd5b91908080601f016020809104026020016040519081016040528093929190818152602001838380828437600081840152601f19601f820116905080830192505050505050509192919290505050611662565b6040518082815260200191505060405180910390f35b6106a16004803603602081101561068b57600080fd5b81019080803590602001909291905050506116d5565b60405180806020018360038111156106b557fe5b60ff168152602001828103825284818151815260200191508051906020019080838360005b838110156106f55780820151818401526020810190506106da565b50505050905090810190601f1680156107225780820380516001836020036101000a031916815260200191505b50935050505060405180910390f35b61073961179e565b6040518082815260200191505060405180910390f35b6107576117a8565b6040518082815260200191505060405180910390f35b6107996004803603602081101561078357600080fd5b81019080803590602001909291905050506117ae565b6040518082815260200191505060405180910390f35b6107b76117c6565b6040518082815260200191505060405180910390f35b610886600480360360208110156107e357600080fd5b810190808035906020019064010000000081111561080057600080fd5b82018360208201111561081257600080fd5b8035906020019184600183028401116401000000008311171561083457600080fd5b91908080601f016020809104026020016040519081016040528093929190818152602001838380828437600081840152601f19601f8201169050808301925050505050505091929192905050506117e0565b6040518082815260200191505060405180910390f35b6108a461180e565b604051808273ffffffffffffffffffffffffffffffffffffffff1673ffffffffffffffffffffffffffffffffffffffff16815260200191505060405180910390f35b61091c600480360360408110156108fc57600080fd5b810190808035906020019092919080359060200190929190505050611833565b60405180806020018060200185600381111561093457fe5b60ff1681526020018473ffffffffffffffffffffffffffffffffffffffff1673ffffffffffffffffffffffffffffffffffffffff168152602001838103835287818151815260200191508051906020019080838360005b838110156109a657808201518184015260208101905061098b565b50505050905090810190601f1680156109d35780820380516001836020036101000a031916815260200191505b50838103825286818151815260200191508051906020019080838360005b83811015610a0c5780820151818401526020810190506109f1565b50505050905090810190601f168015610a395780820380516001836020036101000a031916815260200191505b50965050505050505060405180910390f35b610a536119cd565b6040518082815260200191505060405180910390f35b610abf60048036036060811015610a7f57600080fd5b810190808035906020019092919080359060200190929190803573ffffffffffffffffffffffffffffffffffffffff1690602001909291905050506119e7565b604051808215151515815260200191505060405180910390f35b610b0560048036036020811015610aef57600080fd5b8101908080359060200190929190505050611a23565b6040518082815260200191505060405180910390f35b610b4760048036036020811015610b3157600080fd5b8101908080359060200190929190505050611a3b565b6040518082815260200191505060405180910390f35b610c1660048036036020811015610b7357600080fd5b8101908080359060200190640100000000811115610b9057600080fd5b820183602082011115610ba257600080fd5b80359060200191846001830284011164010000000083111715610bc457600080fd5b91908080601f016020809104026020016040519081016040528093929190818152602001838380828437600081840152601f19601f820116905080830192505050505050509192919290505050611a53565b604051808215151515815260200191505060405180910390f35b610c7c60048036036040811015610c4657600080fd5b8101908080359060200190929190803573ffffffffffffffffffffffffffffffffffffffff169060200190929190505050611f2e565b6040518082815260200191505060405180910390f35b600042905090565b600560205281600052604060002060205280600052604060002060009150915050806000018054600181600116156101000203166002900480601f016020809104026020016040519081016040528092919081815260200182805460018160011615610100020316600290048015610d535780601f10610d2857610100808354040283529160200191610d53565b820191906000526020600020905b815481529060010190602001808311610d3657829003601f168201915b505050505090806001018054600181600116156101000203166002900480601f016020809104026020016040519081016040528092919081815260200182805460018160011615610100020316600290048015610df15780601f10610dc657610100808354040283529160200191610df1565b820191906000526020600020905b815481529060010190602001808311610dd457829003601f168201915b5050505050908060020160009054906101000a900460ff16908060020160019054906101000a900473ffffffffffffffffffffffffffffffffffffffff16905084565b60025481565b60008260006004826040518082805190602001908083835b60208310610e755780518252602082019150602081019050602083039250610e52565b6001836020036101000a03801982511681845116808217855250505050505090500191505090815260200160405180910390205414610eb357600080fd5b8360036000600180540181526020019081526020016000206000019080519060200190610ee1929190611f53565b506000600360006001805401815260200190815260200160002060010160006101000a81548160ff02191690836003811115610f1957fe5b021790555060018054016004856040518082805190602001908083835b60208310610f595780518252602082019150602081019050602083039250610f36565b6001836020036101000a0380198251168184511680821785525050505050509050019150509081526020016040518091039020819055506001600960006001805401815260200190815260200160002060003373ffffffffffffffffffffffffffffffffffffffff1673ffffffffffffffffffffffffffffffffffffffff16815260200190815260200160002081905550604051806080016040528085815260200184815260200160038081111561100d57fe5b81526020013373ffffffffffffffffffffffffffffffffffffffff1681525060056000600180540181526020019081526020016000206000600181526020019081526020016000206000820151816000019080519060200190611071929190611fd3565b50602082015181600101908051906020019061108e929190611fd3565b5060408201518160020160006101000a81548160ff021916908360038111156110b357fe5b021790555060608201518160020160016101000a81548173ffffffffffffffffffffffffffffffffffffffff021916908373ffffffffffffffffffffffffffffffffffffffff160217905550905050604051806080016040528085815260200184815260200160038081111561112557fe5b81526020013373ffffffffffffffffffffffffffffffffffffffff1681525060066000600180540181526020019081526020016000206000600181526020019081526020016000206000820151816000019080519060200190611189929190611fd3565b5060208201518160010190805190602001906111a6929190611fd3565b5060408201518160020160006101000a81548160ff021916908360038111156111cb57fe5b021790555060608201518160020160016101000a81548173ffffffffffffffffffffffffffffffffffffffff021916908373ffffffffffffffffffffffffffffffffffffffff16021790555090505060016007600060018054018152602001908152602001600020819055506001600860006001805401815260200190815260200160002081905550600180600082825401925050819055507f81ef5cf02feaa6a3139bc5c83644bb7f1ef3e9cbc9702080a08b9fdf35017de56004856040518082805190602001908083835b602083106112bb5780518252602082019150602081019050602083039250611298565b6001836020036101000a0380198251168184511680821785525050505050509050019150509081526020016040518091039020548585604051808481526020018060200180602001838103835285818151815260200191508051906020019080838360005b8381101561133b578082015181840152602081019050611320565b50505050905090810190601f1680156113685780820380516001836020036101000a031916815260200191505b50838103825284818151815260200191508051906020019080838360005b838110156113a1578082015181840152602081019050611386565b50505050905090810190601f1680156113ce5780820380516001836020036101000a031916815260200191505b509550505050505060405180910390a1600191505092915050565b60008260006004826040518082805190602001908083835b602083106114245780518252602082019150602081019050602083039250611401565b6001836020036101000a038019825116818451168082178552505050505050905001915050908152602001604051809103902054141561146357600080fd5b836000600381111561147157fe5b6003600061147e84611662565b815260200190815260200160002060010160009054906101000a900460ff1660038111156114a857fe5b146114b257600080fd5b83600254815111156114c357600080fd5b60006114ce87611662565b90506040518060800160405280888152602001878152602001600260038111156114f457fe5b81526020013373ffffffffffffffffffffffffffffffffffffffff16815250600560008381526020019081526020016000206000600160076000868152602001908152602001600020540181526020019081526020016000206000820151816000019080519060200190611569929190611fd3565b506020820151816001019080519060200190611586929190611fd3565b5060408201518160020160006101000a81548160ff021916908360038111156115ab57fe5b021790555060608201518160020160016101000a81548173ffffffffffffffffffffffffffffffffffffffff021916908373ffffffffffffffffffffffffffffffffffffffff1602179055509050506001600760008381526020019081526020016000206000828254019250508190555060016003600083815260200190815260200160002060010160006101000a81548160ff0219169083600381111561164f57fe5b0217905550600194505050505092915050565b60006004826040518082805190602001908083835b6020831061169a5780518252602082019150602081019050602083039250611677565b6001836020036101000a0380198251168184511680821785525050505050509050019150509081526020016040518091039020549050919050565b6003602052806000526040600020600091509050806000018054600181600116156101000203166002900480601f0160208091040260200160405190810160405280929190818152602001828054600181600116156101000203166002900480156117815780601f1061175657610100808354040283529160200191611781565b820191906000526020600020905b81548152906001019060200180831161176457829003601f168201915b5050505050908060010160009054906101000a900460ff16905082565b6000600154905090565b60015481565b600a6020528060005260406000206000915090505481565b600060018060008282540192505081905550600154905090565b6004818051602081018201805184825260208301602085012081835280955050505050506000915090505481565b6000809054906101000a900473ffffffffffffffffffffffffffffffffffffffff1681565b600660205281600052604060002060205280600052604060002060009150915050806000018054600181600116156101000203166002900480601f0160208091040260200160405190810160405280929190818152602001828054600181600116156101000203166002900480156118ec5780601f106118c1576101008083540402835291602001916118ec565b820191906000526020600020905b8154815290600101906020018083116118cf57829003601f168201915b505050505090806001018054600181600116156101000203166002900480601f01602080910402602001604051908101604052809291908181526020018280546001816001161561010002031660029004801561198a5780601f1061195f5761010080835404028352916020019161198a565b820191906000526020600020905b81548152906001019060200180831161196d57829003601f168201915b5050505050908060020160009054906101000a900460ff16908060020160019054906101000a900473ffffffffffffffffffffffffffffffffffffffff16905084565b600060018060008282540192505081905550600154905090565b600b602052826000526040600020602052816000526040600020602052806000526040600020600092509250509054906101000a900460ff1681565b60076020528060005260406000206000915090505481565b60086020528060005260406000206000915090505481565b60008160006004826040518082805190602001908083835b60208310611a8e5780518252602082019150602081019050602083039250611a6b565b6001836020036101000a0380198251168184511680821785525050505050509050019150509081526020016040518091039020541415611acd57600080fd5b8260016003811115611adb57fe5b60036000611ae884611662565b815260200190815260200160002060010160009054906101000a900460ff166003811115611b1257fe5b14611b1c57600080fd5b83600060096000611b2c84611662565b815260200190815260200160002060003373ffffffffffffffffffffffffffffffffffffffff1673ffffffffffffffffffffffffffffffffffffffff1681526020019081526020016000205411611b8257600080fd5b8460001515600b6000611b9484611662565b8152602001908152602001600020600060076000611bb186611662565b815260200190815260200160002054815260200190815260200160002060003373ffffffffffffffffffffffffffffffffffffffff1673ffffffffffffffffffffffffffffffffffffffff16815260200190815260200160002060009054906101000a900460ff16151514611c2557600080fd5b6000611c3087611662565b90506001600b600083815260200190815260200160002060006007600085815260200190815260200160002054815260200190815260200160002060003373ffffffffffffffffffffffffffffffffffffffff1673ffffffffffffffffffffffffffffffffffffffff16815260200190815260200160002060006101000a81548160ff0219169083151502179055506009600082815260200190815260200160002060003373ffffffffffffffffffffffffffffffffffffffff1673ffffffffffffffffffffffffffffffffffffffff16815260200190815260200160002054600a6000838152602001908152602001600020600082825401925050819055506002600860008381526020019081526020016000205481611d4d57fe5b04600a6000838152602001908152602001600020541115611f2457600560008281526020019081526020016000206000600760008481526020019081526020016000205481526020019081526020016000206006600083815260200190815260200160002060006001600860008681526020019081526020016000205401815260200190815260200160002060008201816000019080546001816001161561010002031660029004611e00929190612053565b5060018201816001019080546001816001161561010002031660029004611e28929190612053565b506002820160009054906101000a900460ff168160020160006101000a81548160ff02191690836003811115611e5a57fe5b02179055506002820160019054906101000a900473ffffffffffffffffffffffffffffffffffffffff168160020160016101000a81548173ffffffffffffffffffffffffffffffffffffffff021916908373ffffffffffffffffffffffffffffffffffffffff1602179055509050506001600860008381526020019081526020016000206000828254019250508190555060006003600083815260200190815260200160002060010160006101000a81548160ff02191690836003811115611f1e57fe5b02179055505b5050505050919050565b6009602052816000526040600020602052806000526040600020600091509150505481565b828054600181600116156101000203166002900490600052602060002090601f016020900481019282601f10611f9457805160ff1916838001178555611fc2565b82800160010185558215611fc2579182015b82811115611fc1578251825591602001919060010190611fa6565b5b509050611fcf91906120da565b5090565b828054600181600116156101000203166002900490600052602060002090601f016020900481019282601f1061201457805160ff1916838001178555612042565b82800160010185558215612042579182015b82811115612041578251825591602001919060010190612026565b5b50905061204f91906120da565b5090565b828054600181600116156101000203166002900490600052602060002090601f016020900481019282601f1061208c57805485556120c9565b828001600101855582156120c957600052602060002091601f016020900482015b828111156120c85782548255916001019190600101906120ad565b5b5090506120d691906120da565b5090565b6120fc91905b808211156120f85760008160009055506001016120e0565b5090565b9056fea265627a7a723158204cfce9756c5c3a63f35fa66d5a7542d538b361a8d346724840939ae30c57c98764736f6c63430005100032",
  "source": "\n// SPDX-License-Identifier: MIT\npragma solidity >=0.4.21 <0.7.0;\n\ncontract WhatIs {\n\n  address public owner;\n\n  // Create a counter for the number of unique Whats\n  uint public whatCount;\n  uint public maxEntryBytes = 10;\n\n  // Create a mapping from uint id to What\n  // mapping (uint => What) public whats;\n\n  // Create a mapping for each What\n  // mapping (uint => WhatContent) public whatContents;\n\n  // Define the state a What can be in\n  enum State{Open, Voting, Proposed, Accepted}\n\n  // Define a what\n  struct What { \n    string name;\n    State state;\n  }\n\n  struct Entry { \n    string what;\n    string content;\n    State state;\n    address proposer;\n  }\n  \n\n  // Create a bidirectional mapping between whats and ids\n  mapping (uint => What) public whats;\n  mapping (string => uint) public ids;\n  // Create entry mappings\n  mapping(uint => mapping(uint => Entry)) public proposedEntries;\n  mapping(uint => mapping(uint => Entry)) public acceptedEntries;\n  mapping(uint => uint) public proposedEntriesCount;\n  mapping(uint => uint) public acceptedEntriesCount;\n  // Create ownership mappings\n  mapping(uint => mapping(address => uint)) public ownership;\n  // Create votes mapping\n  mapping(uint => uint) public votes;\n  // Creates voted mapping to track who has voted\n  mapping(uint => mapping(uint => mapping(address => bool))) public voted;\n\n  // <LogCreated event: id, name, content>\n  event LogWhatCreated(uint id, string name, string entry);\n\n  // <LogFetched event: name, id>\n  event LogFetched(string name, uint id);\n\n  // modifier doesExist (string what) { \n  //   // check that what is already in the array of defined objects\n  // }\n\n  modifier doesNotExist (string memory _name) { \n    // check that What is not already in the mapping\n    require(ids[_name] == 0);\n    _;\n  }\n\n  modifier doesExist (string memory _name) { \n    // check that What is not already in the mapping\n    require(ids[_name] != 0);\n    _;\n  }\n\n  modifier meetsLengthLimits (string memory _entry) { \n    // check that What is not already in the mapping\n    require(bytes(_entry).length <= maxEntryBytes);\n    _;\n  }\n\n  modifier isOpen (string memory _name) { \n    // check that What is open\n    require(whats[getWhatID(_name)].state == State.Open);\n    _;\n  }\n\n  modifier isVoting (string memory _name) { \n    // check that What is in voting\n    require(whats[getWhatID(_name)].state == State.Voting);\n    _;\n  }\n\n  modifier isOwner (string memory _name) { \n    // check that a sender is an owner, i.e. entitled to vote\n    require(ownership[getWhatID(_name)][msg.sender] > 0);\n    _;\n  }\n\n  modifier hasNotAlreadyVoted (string memory _name) { \n    // check that a sender is an owner, i.e. entitled to vote\n    require(voted[getWhatID(_name)][proposedEntriesCount[getWhatID(_name)]][msg.sender] == false);\n    _;\n  }\n\n  constructor() public {\n    // 1. Set the owner to the transaction sender\n    owner = msg.sender;\n    // 2. Initialize the sku count to 0.\n    whatCount = 0;\n  }\n\n  function createWhat(string memory _name, string memory _entry) \n    public \n    doesNotExist(_name) \n    returns (bool) \n    {\n    // 1. Create the What\n    whats[whatCount+1].name = _name;\n    whats[whatCount+1].state = State.Open;\n    // 2. Write the entry and mark the ownership\n    ids[_name] = whatCount+1;\n    ownership[whatCount+1][msg.sender] = 1;\n    proposedEntries[whatCount+1][1] = Entry({\n      what: _name,\n      content: _entry,\n      state: State.Accepted,\n      proposer: msg.sender\n    });\n    acceptedEntries[whatCount+1][1] = Entry({\n      what: _name,\n      content: _entry,\n      state: State.Accepted,\n      proposer: msg.sender\n    });\n    proposedEntriesCount[whatCount+1] = 1;\n    acceptedEntriesCount[whatCount+1] = 1;\n    // 3. Advance the whatCount\n    whatCount += 1;\n    // 4. Emit the event\n    emit LogWhatCreated(ids[_name],_name, _entry);\n    // 5. Return true\n    return true;\n    }\n\n  function getWhatID(string memory _name)\n    public returns (uint)\n    {\n      return ids[_name];\n    }\n\n  function getWhatCount()\n    public returns (uint)\n    {\n      return whatCount;\n    }\n\n  function advanceWhatCount()\n    public returns (uint)\n    {\n      whatCount += 1;\n      return whatCount;\n    }\n\n   function proposeEntry(string memory _name, string memory _entry)\n    public\n    doesExist(_name)\n    isOpen(_name)\n    meetsLengthLimits(_entry)\n    returns (bool)\n    {\n      uint id = getWhatID(_name);\n      proposedEntries[id][proposedEntriesCount[id]+1] = Entry({\n        what: _name,\n        content: _entry,\n        state: State.Proposed,\n        proposer: msg.sender\n      });\n      proposedEntriesCount[id] += 1;\n      whats[id].state = State.Voting;\n      return true;\n    }\n\n   function vote(string memory _name)\n    public\n    doesExist(_name)\n    isVoting(_name)\n    isOwner(_name)\n    hasNotAlreadyVoted(_name)\n    returns (bool)\n    {\n      uint id = getWhatID(_name);\n      voted[id][proposedEntriesCount[id]][msg.sender]=true;\n      votes[id] += ownership[id][msg.sender];\n      // If that vote is pivotal, we terminate the vote and accept the entry\n      if (votes[id] > acceptedEntriesCount[id]/2) {\n        // Accept the entry\n        acceptedEntries[id][acceptedEntriesCount[id]+1] = proposedEntries[id][proposedEntriesCount[id]];\n        acceptedEntriesCount[id] += 1;\n        // Put the What back in an open state\n        whats[id].state = State.Open;\n      }\n    }\n\n   function timeCall() public returns (uint256){\n        return now;\n    }\n\n   function endVote()\n    public returns (uint)\n    {\n      whatCount += 1;\n      return whatCount;\n    }\n\n\n\n    // function deleteWhat(string memory _name) \n    // public returns (bool) \n    // {\n    // delete whats[_name];\n    // return true;\n    // }\n\n    // function checkWhat(string memory _name) \n    // // 1. Check that What doesn't already exist\n    // // [TD] doesNotExist(what)\n    // public returns (bool) \n    // {\n    // return true;\n    // }\n\n//  function fetchWhatByID(uint _id) public view  \n//     returns (string memory name, uint id, string memory content, State state, address creator, address lastContributor, bool exists) \n//     { \n//     name = whats[_id].name; \n//     id = whats[_id].id; \n//     content = whats[_id].content; \n//     state = whats[_id].state; \n//     creator = whats[_id].creator; \n//     lastContributor = whats[_id].lastContributor; \n//     exists = whats[_id].exists;\n//     // emit LogFetched(name,_id);\n//     return (name, id, content, state, creator, lastContributor, exists);\n//     }\n\n//  function fetchWhatByName(string memory _name) public view  \n//     returns (string memory name, uint id, string memory content, State state, address creator, address lastContributor, bool exists) \n//     { \n//     name = whats[_name].name; \n//     id = whats[_name].id; \n//     content = whats[_name].content; \n//     state = whats[_name].state; \n//     creator = whats[_name].creator; \n//     lastContributor = whats[_name].lastContributor; \n//     exists = whats[_name].exists;\n//     // emit LogFetched(name,_id);\n//     return (name, id, content, state, creator, lastContributor, exists);\n//     }\n}",
  "sourcePath": "/home/shaneauerbach/github/blockchain-developer-bootcamp-final-project/contracts/WhatIs.sol",
  "compiler": {
    "name": "solc",
    "version": "0.5.16+commit.9c3226ce.Emscripten.clang"
  },
  "schemaVersion": "3.4.3",
  "updatedAt": "2021-11-04T22:40:34.645Z",
  "networkType": "ethereum",
  "devdoc": {
    "methods": {}
  },
  "userdoc": {
    "methods": {}
  }
}