{
  "contractName": "WhatIs",
  "abi": [
    {
      "inputs": [],
      "payable": false,
      "stateMutability": "nonpayable",
      "type": "constructor"
    },
    {
      "anonymous": false,
      "inputs": [
        {
          "indexed": false,
          "internalType": "string",
          "name": "name",
          "type": "string"
        },
        {
          "indexed": false,
          "internalType": "uint256",
          "name": "id",
          "type": "uint256"
        }
      ],
      "name": "LogCreated",
      "type": "event"
    },
    {
      "anonymous": false,
      "inputs": [
        {
          "indexed": false,
          "internalType": "string",
          "name": "name",
          "type": "string"
        },
        {
          "indexed": false,
          "internalType": "uint256",
          "name": "id",
          "type": "uint256"
        }
      ],
      "name": "LogFetched",
      "type": "event"
    },
    {
      "constant": true,
      "inputs": [
        {
          "internalType": "string",
          "name": "",
          "type": "string"
        }
      ],
      "name": "ids",
      "outputs": [
        {
          "internalType": "uint256",
          "name": "",
          "type": "uint256"
        }
      ],
      "payable": false,
      "stateMutability": "view",
      "type": "function"
    },
    {
      "constant": true,
      "inputs": [],
      "name": "owner",
      "outputs": [
        {
          "internalType": "address",
          "name": "",
          "type": "address"
        }
      ],
      "payable": false,
      "stateMutability": "view",
      "type": "function"
    },
    {
      "constant": true,
      "inputs": [],
      "name": "whatCount",
      "outputs": [
        {
          "internalType": "uint256",
          "name": "",
          "type": "uint256"
        }
      ],
      "payable": false,
      "stateMutability": "view",
      "type": "function"
    },
    {
      "constant": true,
      "inputs": [
        {
          "internalType": "uint256",
          "name": "",
          "type": "uint256"
        }
      ],
      "name": "whats",
      "outputs": [
        {
          "internalType": "string",
          "name": "name",
          "type": "string"
        },
        {
          "internalType": "string",
          "name": "content",
          "type": "string"
        },
        {
          "internalType": "enum WhatIs.State",
          "name": "state",
          "type": "uint8"
        },
        {
          "internalType": "address payable",
          "name": "creator",
          "type": "address"
        },
        {
          "internalType": "address payable",
          "name": "lastContributor",
          "type": "address"
        },
        {
          "internalType": "bool",
          "name": "exists",
          "type": "bool"
        }
      ],
      "payable": false,
      "stateMutability": "view",
      "type": "function"
    },
    {
      "constant": false,
      "inputs": [
        {
          "internalType": "string",
          "name": "_name",
          "type": "string"
        },
        {
          "internalType": "string",
          "name": "_content",
          "type": "string"
        }
      ],
      "name": "createWhat",
      "outputs": [
        {
          "internalType": "bool",
          "name": "",
          "type": "bool"
        }
      ],
      "payable": false,
      "stateMutability": "nonpayable",
      "type": "function"
    },
    {
      "constant": false,
      "inputs": [
        {
          "internalType": "string",
          "name": "_name",
          "type": "string"
        }
      ],
      "name": "getWhatID",
      "outputs": [
        {
          "internalType": "uint256",
          "name": "",
          "type": "uint256"
        }
      ],
      "payable": false,
      "stateMutability": "nonpayable",
      "type": "function"
    },
    {
      "constant": false,
      "inputs": [],
      "name": "getWhatCount",
      "outputs": [
        {
          "internalType": "uint256",
          "name": "",
          "type": "uint256"
        }
      ],
      "payable": false,
      "stateMutability": "nonpayable",
      "type": "function"
    },
    {
      "constant": false,
      "inputs": [],
      "name": "advanceWhatCount",
      "outputs": [
        {
          "internalType": "uint256",
          "name": "",
          "type": "uint256"
        }
      ],
      "payable": false,
      "stateMutability": "nonpayable",
      "type": "function"
    }
  ],
  "bytecode": "0x608060405234801561001057600080fd5b50336000806101000a81548173ffffffffffffffffffffffffffffffffffffffff021916908373ffffffffffffffffffffffffffffffffffffffff16021790555060018081905550610c9d806100676000396000f3fe608060405234801561001057600080fd5b50600436106100885760003560e01c80634fd97f891161005b5780634fd97f891461047d57806370418b4a1461049b5780638a08677d146104b95780638da5cb5b1461058857610088565b8063363e55ad1461008d5780633f82794c146101f75780634d5f0f02146102c65780634e4f86d01461045f575b600080fd5b6101dd600480360360408110156100a357600080fd5b81019080803590602001906401000000008111156100c057600080fd5b8201836020820111156100d257600080fd5b803590602001918460018302840111640100000000831117156100f457600080fd5b91908080601f016020809104026020016040519081016040528093929190818152602001838380828437600081840152601f19601f8201169050808301925050505050505091929192908035906020019064010000000081111561015757600080fd5b82018360208201111561016957600080fd5b8035906020019184600183028401116401000000008311171561018b57600080fd5b91908080601f016020809104026020016040519081016040528093929190818152602001838380828437600081840152601f19601f8201169050808301925050505050505091929192905050506105d2565b604051808215151515815260200191505060405180910390f35b6102b06004803603602081101561020d57600080fd5b810190808035906020019064010000000081111561022a57600080fd5b82018360208201111561023c57600080fd5b8035906020019184600183028401116401000000008311171561025e57600080fd5b91908080601f016020809104026020016040519081016040528093929190818152602001838380828437600081840152601f19601f82011690508083019250505050505050919291929050505061090d565b6040518082815260200191505060405180910390f35b6102f2600480360360208110156102dc57600080fd5b8101908080359060200190929190505050610980565b60405180806020018060200187600181111561030a57fe5b60ff1681526020018673ffffffffffffffffffffffffffffffffffffffff1673ffffffffffffffffffffffffffffffffffffffff1681526020018573ffffffffffffffffffffffffffffffffffffffff1673ffffffffffffffffffffffffffffffffffffffff16815260200184151515158152602001838103835289818151815260200191508051906020019080838360005b838110156103b857808201518184015260208101905061039d565b50505050905090810190601f1680156103e55780820380516001836020036101000a031916815260200191505b50838103825288818151815260200191508051906020019080838360005b8381101561041e578082015181840152602081019050610403565b50505050905090810190601f16801561044b5780820380516001836020036101000a031916815260200191505b509850505050505050505060405180910390f35b610467610b46565b6040518082815260200191505060405180910390f35b610485610b50565b6040518082815260200191505060405180910390f35b6104a3610b56565b6040518082815260200191505060405180910390f35b610572600480360360208110156104cf57600080fd5b81019080803590602001906401000000008111156104ec57600080fd5b8201836020820111156104fe57600080fd5b8035906020019184600183028401116401000000008311171561052057600080fd5b91908080601f016020809104026020016040519081016040528093929190818152602001838380828437600081840152601f19601f820116905080830192505050505050509192919290505050610b70565b6040518082815260200191505060405180910390f35b610590610b9e565b604051808273ffffffffffffffffffffffffffffffffffffffff1673ffffffffffffffffffffffffffffffffffffffff16815260200191505060405180910390f35b60008260006003826040518082805190602001908083835b6020831061060d57805182526020820191506020810190506020830392506105ea565b6001836020036101000a0380198251168184511680821785525050505050509050019150509081526020016040518091039020541461064b57600080fd5b6040518060c001604052808581526020018481526020016000600181111561066f57fe5b81526020013373ffffffffffffffffffffffffffffffffffffffff1681526020013373ffffffffffffffffffffffffffffffffffffffff1681526020016001151581525060026000600154815260200190815260200160002060008201518160000190805190602001906106e4929190610bc3565b506020820151816001019080519060200190610701929190610bc3565b5060408201518160020160006101000a81548160ff0219169083600181111561072657fe5b021790555060608201518160020160016101000a81548173ffffffffffffffffffffffffffffffffffffffff021916908373ffffffffffffffffffffffffffffffffffffffff16021790555060808201518160030160006101000a81548173ffffffffffffffffffffffffffffffffffffffff021916908373ffffffffffffffffffffffffffffffffffffffff16021790555060a08201518160030160146101000a81548160ff0219169083151502179055509050506001546003856040518082805190602001908083835b6020831061081557805182526020820191506020810190506020830392506107f2565b6001836020036101000a038019825116818451168082178552505050505050905001915050908152602001604051809103902081905550600180600082825401925050819055507fa8ff7927bf598204bb00feeb0dda3857e7ccfafd9fc1b427a204dfb6d5015904846001546040518080602001838152602001828103825284818151815260200191508051906020019080838360005b838110156108c75780820151818401526020810190506108ac565b50505050905090810190601f1680156108f45780820380516001836020036101000a031916815260200191505b50935050505060405180910390a1600191505092915050565b60006003826040518082805190602001908083835b602083106109455780518252602082019150602081019050602083039250610922565b6001836020036101000a0380198251168184511680821785525050505050509050019150509081526020016040518091039020549050919050565b6002602052806000526040600020600091509050806000018054600181600116156101000203166002900480601f016020809104026020016040519081016040528092919081815260200182805460018160011615610100020316600290048015610a2c5780601f10610a0157610100808354040283529160200191610a2c565b820191906000526020600020905b815481529060010190602001808311610a0f57829003601f168201915b505050505090806001018054600181600116156101000203166002900480601f016020809104026020016040519081016040528092919081815260200182805460018160011615610100020316600290048015610aca5780601f10610a9f57610100808354040283529160200191610aca565b820191906000526020600020905b815481529060010190602001808311610aad57829003601f168201915b5050505050908060020160009054906101000a900460ff16908060020160019054906101000a900473ffffffffffffffffffffffffffffffffffffffff16908060030160009054906101000a900473ffffffffffffffffffffffffffffffffffffffff16908060030160149054906101000a900460ff16905086565b6000600154905090565b60015481565b600060018060008282540192505081905550600154905090565b6003818051602081018201805184825260208301602085012081835280955050505050506000915090505481565b6000809054906101000a900473ffffffffffffffffffffffffffffffffffffffff1681565b828054600181600116156101000203166002900490600052602060002090601f016020900481019282601f10610c0457805160ff1916838001178555610c32565b82800160010185558215610c32579182015b82811115610c31578251825591602001919060010190610c16565b5b509050610c3f9190610c43565b5090565b610c6591905b80821115610c61576000816000905550600101610c49565b5090565b9056fea265627a7a72315820bee68e5a22da157b257b1869cd8cb334e28abd75050810ffd8eec9668e1e43cb64736f6c63430005100032",
  "source": "\n// SPDX-License-Identifier: MIT\npragma solidity >=0.4.21 <0.7.0;\n\ncontract WhatIs {\n\n  address public owner;\n\n  // Create a counter for the number of unique Whats\n  uint public whatCount;\n\n  // Create a mapping from uint id to What\n  // mapping (uint => What) public whats;\n\n  // Create a mapping for each What\n  // mapping (uint => WhatContent) public whatContents;\n\n  // Define the state a What can be in\n  enum State{Open, Voting}\n\n  // Define a what\n  struct What { \n    string name;\n    string content;\n    State state;\n    address payable creator;\n    address payable lastContributor;\n    bool exists;\n  }\n\n  // Create a bidirectional mapping between whats and ids\n  mapping (uint => What) public whats;\n  mapping (string => uint) public ids;\n\n  // <LogCreated event: name, id>\n  event LogCreated(string name, uint id);\n\n  // <LogFetched event: name, id>\n  event LogFetched(string name, uint id);\n\n  // modifier doesExist (string what) { \n  //   // check that what is already in the array of defined objects\n  // }\n\n  modifier doesNotExist (string memory _name) { \n    // check that What is not already in the mapping\n    require(ids[_name] == 0);\n    _;\n  }\n\n  constructor() public {\n    // 1. Set the owner to the transaction sender\n    owner = msg.sender;\n    // 2. Initialize the sku count to 0.\n    whatCount = 1;\n  }\n\n  function createWhat(string memory _name, string memory _content) \n    public \n    doesNotExist(_name) \n    returns (bool) \n    {\n    whats[whatCount] = What({\n      name: _name,\n      content: _content,\n      state: State.Open,\n      creator: msg.sender,\n      lastContributor: msg.sender,\n      exists: true\n    });\n    // 3. Increment the whatCount by 1\n    ids[_name] = whatCount;\n    whatCount += 1;\n    // 4. Emit the event\n    emit LogCreated(_name, whatCount);\n    // 5. Return true\n    return true;\n    }\n\n  function getWhatID(string memory _name)\n    public returns (uint)\n    {\n      return ids[_name];\n    }\n\n  function getWhatCount()\n    public returns (uint)\n    {\n      return whatCount;\n    }\n\n  function advanceWhatCount()\n    public returns (uint)\n    {\n      whatCount += 1;\n      return whatCount;\n    }\n\n    // function deleteWhat(string memory _name) \n    // public returns (bool) \n    // {\n    // delete whats[_name];\n    // return true;\n    // }\n\n    // function checkWhat(string memory _name) \n    // // 1. Check that What doesn't already exist\n    // // [TD] doesNotExist(what)\n    // public returns (bool) \n    // {\n    // return true;\n    // }\n\n//  function fetchWhatByID(uint _id) public view  \n//     returns (string memory name, uint id, string memory content, State state, address creator, address lastContributor, bool exists) \n//     { \n//     name = whats[_id].name; \n//     id = whats[_id].id; \n//     content = whats[_id].content; \n//     state = whats[_id].state; \n//     creator = whats[_id].creator; \n//     lastContributor = whats[_id].lastContributor; \n//     exists = whats[_id].exists;\n//     // emit LogFetched(name,_id);\n//     return (name, id, content, state, creator, lastContributor, exists);\n//     }\n\n//  function fetchWhatByName(string memory _name) public view  \n//     returns (string memory name, uint id, string memory content, State state, address creator, address lastContributor, bool exists) \n//     { \n//     name = whats[_name].name; \n//     id = whats[_name].id; \n//     content = whats[_name].content; \n//     state = whats[_name].state; \n//     creator = whats[_name].creator; \n//     lastContributor = whats[_name].lastContributor; \n//     exists = whats[_name].exists;\n//     // emit LogFetched(name,_id);\n//     return (name, id, content, state, creator, lastContributor, exists);\n//     }\n}",
  "sourcePath": "/home/shaneauerbach/github/blockchain-developer-bootcamp-final-project/contracts/WhatIs.sol",
  "compiler": {
    "name": "solc",
    "version": "0.5.16+commit.9c3226ce.Emscripten.clang"
  },
  "schemaVersion": "3.4.3",
  "updatedAt": "2021-10-29T22:46:07.392Z",
  "devdoc": {
    "methods": {}
  },
  "userdoc": {
    "methods": {}
  }
}