{
  "contractName": "WhatIs",
  "abi": [
    {
      "inputs": [],
      "payable": false,
      "stateMutability": "nonpayable",
      "type": "constructor"
    },
    {
      "anonymous": false,
      "inputs": [
        {
          "indexed": false,
          "internalType": "uint256",
          "name": "what_id",
          "type": "uint256"
        },
        {
          "indexed": false,
          "internalType": "uint256",
          "name": "proposed_entry_id",
          "type": "uint256"
        },
        {
          "indexed": false,
          "internalType": "uint256",
          "name": "accepted_entry_id",
          "type": "uint256"
        },
        {
          "indexed": false,
          "internalType": "string",
          "name": "name",
          "type": "string"
        },
        {
          "indexed": false,
          "internalType": "string",
          "name": "content",
          "type": "string"
        },
        {
          "indexed": false,
          "internalType": "address",
          "name": "proposer",
          "type": "address"
        },
        {
          "indexed": false,
          "internalType": "uint256",
          "name": "votesRequired",
          "type": "uint256"
        },
        {
          "indexed": false,
          "internalType": "uint256",
          "name": "votesReceived",
          "type": "uint256"
        },
        {
          "indexed": false,
          "internalType": "uint256",
          "name": "acceptedTimestamp",
          "type": "uint256"
        }
      ],
      "name": "LogEntryAccepted",
      "type": "event"
    },
    {
      "anonymous": false,
      "inputs": [
        {
          "indexed": false,
          "internalType": "uint256",
          "name": "what_id",
          "type": "uint256"
        },
        {
          "indexed": false,
          "internalType": "uint256",
          "name": "proposed_entry_id",
          "type": "uint256"
        },
        {
          "indexed": false,
          "internalType": "string",
          "name": "name",
          "type": "string"
        },
        {
          "indexed": false,
          "internalType": "string",
          "name": "entry",
          "type": "string"
        },
        {
          "indexed": false,
          "internalType": "address",
          "name": "proposer",
          "type": "address"
        },
        {
          "indexed": false,
          "internalType": "uint256",
          "name": "proposedTimestamp",
          "type": "uint256"
        }
      ],
      "name": "LogEntryProposed",
      "type": "event"
    },
    {
      "anonymous": false,
      "inputs": [
        {
          "indexed": false,
          "internalType": "uint256",
          "name": "what_id",
          "type": "uint256"
        },
        {
          "indexed": false,
          "internalType": "uint256",
          "name": "proposed_entry_id",
          "type": "uint256"
        },
        {
          "indexed": false,
          "internalType": "string",
          "name": "name",
          "type": "string"
        },
        {
          "indexed": false,
          "internalType": "address",
          "name": "voter",
          "type": "address"
        },
        {
          "indexed": false,
          "internalType": "uint256",
          "name": "votedTimestamp",
          "type": "uint256"
        },
        {
          "indexed": false,
          "internalType": "bool",
          "name": "pivotal",
          "type": "bool"
        }
      ],
      "name": "LogVoted",
      "type": "event"
    },
    {
      "anonymous": false,
      "inputs": [
        {
          "indexed": false,
          "internalType": "uint256",
          "name": "id",
          "type": "uint256"
        },
        {
          "indexed": false,
          "internalType": "string",
          "name": "name",
          "type": "string"
        },
        {
          "indexed": false,
          "internalType": "string",
          "name": "entry",
          "type": "string"
        },
        {
          "indexed": false,
          "internalType": "address",
          "name": "creator",
          "type": "address"
        },
        {
          "indexed": false,
          "internalType": "uint256",
          "name": "createdTimestamp",
          "type": "uint256"
        }
      ],
      "name": "LogWhatCreated",
      "type": "event"
    },
    {
      "constant": true,
      "inputs": [
        {
          "internalType": "uint256",
          "name": "",
          "type": "uint256"
        },
        {
          "internalType": "uint256",
          "name": "",
          "type": "uint256"
        }
      ],
      "name": "acceptedEntries",
      "outputs": [
        {
          "internalType": "string",
          "name": "what",
          "type": "string"
        },
        {
          "internalType": "string",
          "name": "content",
          "type": "string"
        },
        {
          "internalType": "enum WhatIs.State",
          "name": "state",
          "type": "uint8"
        },
        {
          "internalType": "address",
          "name": "proposer",
          "type": "address"
        },
        {
          "internalType": "uint256",
          "name": "proposedTimestamp",
          "type": "uint256"
        }
      ],
      "payable": false,
      "stateMutability": "view",
      "type": "function"
    },
    {
      "constant": true,
      "inputs": [
        {
          "internalType": "uint256",
          "name": "",
          "type": "uint256"
        }
      ],
      "name": "acceptedEntriesCount",
      "outputs": [
        {
          "internalType": "uint256",
          "name": "",
          "type": "uint256"
        }
      ],
      "payable": false,
      "stateMutability": "view",
      "type": "function"
    },
    {
      "constant": true,
      "inputs": [
        {
          "internalType": "string",
          "name": "",
          "type": "string"
        }
      ],
      "name": "ids",
      "outputs": [
        {
          "internalType": "uint256",
          "name": "",
          "type": "uint256"
        }
      ],
      "payable": false,
      "stateMutability": "view",
      "type": "function"
    },
    {
      "constant": true,
      "inputs": [],
      "name": "maxEntryBytes",
      "outputs": [
        {
          "internalType": "uint256",
          "name": "",
          "type": "uint256"
        }
      ],
      "payable": false,
      "stateMutability": "view",
      "type": "function"
    },
    {
      "constant": true,
      "inputs": [],
      "name": "owner",
      "outputs": [
        {
          "internalType": "address",
          "name": "",
          "type": "address"
        }
      ],
      "payable": false,
      "stateMutability": "view",
      "type": "function"
    },
    {
      "constant": true,
      "inputs": [
        {
          "internalType": "uint256",
          "name": "",
          "type": "uint256"
        },
        {
          "internalType": "address",
          "name": "",
          "type": "address"
        }
      ],
      "name": "ownership",
      "outputs": [
        {
          "internalType": "uint256",
          "name": "",
          "type": "uint256"
        }
      ],
      "payable": false,
      "stateMutability": "view",
      "type": "function"
    },
    {
      "constant": true,
      "inputs": [
        {
          "internalType": "uint256",
          "name": "",
          "type": "uint256"
        },
        {
          "internalType": "uint256",
          "name": "",
          "type": "uint256"
        }
      ],
      "name": "proposedEntries",
      "outputs": [
        {
          "internalType": "string",
          "name": "what",
          "type": "string"
        },
        {
          "internalType": "string",
          "name": "content",
          "type": "string"
        },
        {
          "internalType": "enum WhatIs.State",
          "name": "state",
          "type": "uint8"
        },
        {
          "internalType": "address",
          "name": "proposer",
          "type": "address"
        },
        {
          "internalType": "uint256",
          "name": "proposedTimestamp",
          "type": "uint256"
        }
      ],
      "payable": false,
      "stateMutability": "view",
      "type": "function"
    },
    {
      "constant": true,
      "inputs": [
        {
          "internalType": "uint256",
          "name": "",
          "type": "uint256"
        }
      ],
      "name": "proposedEntriesCount",
      "outputs": [
        {
          "internalType": "uint256",
          "name": "",
          "type": "uint256"
        }
      ],
      "payable": false,
      "stateMutability": "view",
      "type": "function"
    },
    {
      "constant": true,
      "inputs": [],
      "name": "voteDuration",
      "outputs": [
        {
          "internalType": "uint256",
          "name": "",
          "type": "uint256"
        }
      ],
      "payable": false,
      "stateMutability": "view",
      "type": "function"
    },
    {
      "constant": true,
      "inputs": [
        {
          "internalType": "uint256",
          "name": "",
          "type": "uint256"
        },
        {
          "internalType": "uint256",
          "name": "",
          "type": "uint256"
        },
        {
          "internalType": "address",
          "name": "",
          "type": "address"
        }
      ],
      "name": "voted",
      "outputs": [
        {
          "internalType": "bool",
          "name": "",
          "type": "bool"
        }
      ],
      "payable": false,
      "stateMutability": "view",
      "type": "function"
    },
    {
      "constant": true,
      "inputs": [
        {
          "internalType": "uint256",
          "name": "",
          "type": "uint256"
        }
      ],
      "name": "votes",
      "outputs": [
        {
          "internalType": "uint256",
          "name": "",
          "type": "uint256"
        }
      ],
      "payable": false,
      "stateMutability": "view",
      "type": "function"
    },
    {
      "constant": true,
      "inputs": [],
      "name": "whatCount",
      "outputs": [
        {
          "internalType": "uint256",
          "name": "",
          "type": "uint256"
        }
      ],
      "payable": false,
      "stateMutability": "view",
      "type": "function"
    },
    {
      "constant": true,
      "inputs": [
        {
          "internalType": "uint256",
          "name": "",
          "type": "uint256"
        }
      ],
      "name": "whats",
      "outputs": [
        {
          "internalType": "string",
          "name": "name",
          "type": "string"
        },
        {
          "internalType": "enum WhatIs.State",
          "name": "state",
          "type": "uint8"
        }
      ],
      "payable": false,
      "stateMutability": "view",
      "type": "function"
    },
    {
      "constant": false,
      "inputs": [
        {
          "internalType": "string",
          "name": "_name",
          "type": "string"
        },
        {
          "internalType": "string",
          "name": "_entry",
          "type": "string"
        }
      ],
      "name": "createWhat",
      "outputs": [
        {
          "internalType": "bool",
          "name": "",
          "type": "bool"
        }
      ],
      "payable": false,
      "stateMutability": "nonpayable",
      "type": "function"
    },
    {
      "constant": false,
      "inputs": [
        {
          "internalType": "string",
          "name": "_name",
          "type": "string"
        }
      ],
      "name": "getWhatID",
      "outputs": [
        {
          "internalType": "uint256",
          "name": "",
          "type": "uint256"
        }
      ],
      "payable": false,
      "stateMutability": "nonpayable",
      "type": "function"
    },
    {
      "constant": false,
      "inputs": [],
      "name": "getWhatCount",
      "outputs": [
        {
          "internalType": "uint256",
          "name": "",
          "type": "uint256"
        }
      ],
      "payable": false,
      "stateMutability": "nonpayable",
      "type": "function"
    },
    {
      "constant": false,
      "inputs": [
        {
          "internalType": "string",
          "name": "_name",
          "type": "string"
        },
        {
          "internalType": "string",
          "name": "_entry",
          "type": "string"
        }
      ],
      "name": "proposeEntry",
      "outputs": [
        {
          "internalType": "bool",
          "name": "",
          "type": "bool"
        }
      ],
      "payable": false,
      "stateMutability": "nonpayable",
      "type": "function"
    },
    {
      "constant": false,
      "inputs": [
        {
          "internalType": "string",
          "name": "_name",
          "type": "string"
        }
      ],
      "name": "vote",
      "outputs": [
        {
          "internalType": "bool",
          "name": "",
          "type": "bool"
        }
      ],
      "payable": false,
      "stateMutability": "nonpayable",
      "type": "function"
    },
    {
      "constant": false,
      "inputs": [],
      "name": "getCurrentTime",
      "outputs": [
        {
          "internalType": "uint256",
          "name": "",
          "type": "uint256"
        }
      ],
      "payable": false,
      "stateMutability": "nonpayable",
      "type": "function"
    },
    {
      "constant": false,
      "inputs": [
        {
          "internalType": "string",
          "name": "_name",
          "type": "string"
        }
      ],
      "name": "rejectEntry",
      "outputs": [
        {
          "internalType": "bool",
          "name": "",
          "type": "bool"
        }
      ],
      "payable": false,
      "stateMutability": "nonpayable",
      "type": "function"
    }
  ],
  "bytecode": "0x6080604052600a6001556201518060025534801561001c57600080fd5b5033600c60006101000a81548173ffffffffffffffffffffffffffffffffffffffff021916908373ffffffffffffffffffffffffffffffffffffffff16021790555060008081905550612b3a806100746000396000f3fe608060405234801561001057600080fd5b506004361061012c5760003560e01c80635df81330116100ad578063d37f2f8b11610071578063d37f2f8b14610ac9578063d4f1a5b214610b9c578063f9d7a0be14610bde578063fc36e15b14610c20578063fe73584414610cf35761012c565b80635df81330146107925780638a08677d146107d45780638da5cb5b146108a3578063a26cca93146108ed578063ca014fcd14610a595761012c565b80633f82794c116100f45780633f82794c146105ad5780634d5f0f021461067c5780634e4f86d0146107385780634fd97f891461075657806356364499146107745761012c565b806329cb924d146101315780632a527f0f1461014f5780632d8d83f7146102bb578063363e55ad146102d95780633ce1672014610443575b600080fd5b610139610d55565b6040518082815260200191505060405180910390f35b6101856004803603604081101561016557600080fd5b810190808035906020019092919080359060200190929190505050610d5d565b60405180806020018060200186600481111561019d57fe5b60ff1681526020018573ffffffffffffffffffffffffffffffffffffffff1673ffffffffffffffffffffffffffffffffffffffff168152602001848152602001838103835288818151815260200191508051906020019080838360005b838110156102155780820151818401526020810190506101fa565b50505050905090810190601f1680156102425780820380516001836020036101000a031916815260200191505b50838103825287818151815260200191508051906020019080838360005b8381101561027b578082015181840152602081019050610260565b50505050905090810190601f1680156102a85780820380516001836020036101000a031916815260200191505b5097505050505050505060405180910390f35b6102c3610efd565b6040518082815260200191505060405180910390f35b610429600480360360408110156102ef57600080fd5b810190808035906020019064010000000081111561030c57600080fd5b82018360208201111561031e57600080fd5b8035906020019184600183028401116401000000008311171561034057600080fd5b91908080601f016020809104026020016040519081016040528093929190818152602001838380828437600081840152601f19601f820116905080830192505050505050509192919290803590602001906401000000008111156103a357600080fd5b8201836020820111156103b557600080fd5b803590602001918460018302840111640100000000831117156103d757600080fd5b91908080601f016020809104026020016040519081016040528093929190818152602001838380828437600081840152601f19601f820116905080830192505050505050509192919290505050610f03565b604051808215151515815260200191505060405180910390f35b6105936004803603604081101561045957600080fd5b810190808035906020019064010000000081111561047657600080fd5b82018360208201111561048857600080fd5b803590602001918460018302840111640100000000831117156104aa57600080fd5b91908080601f016020809104026020016040519081016040528093929190818152602001838380828437600081840152601f19601f8201169050808301925050505050505091929192908035906020019064010000000081111561050d57600080fd5b82018360208201111561051f57600080fd5b8035906020019184600183028401116401000000008311171561054157600080fd5b91908080601f016020809104026020016040519081016040528093929190818152602001838380828437600081840152601f19601f820116905080830192505050505050509192919290505050611518565b604051808215151515815260200191505060405180910390f35b610666600480360360208110156105c357600080fd5b81019080803590602001906401000000008111156105e057600080fd5b8201836020820111156105f257600080fd5b8035906020019184600183028401116401000000008311171561061457600080fd5b91908080601f016020809104026020016040519081016040528093929190818152602001838380828437600081840152601f19601f820116905080830192505050505050509192919290505050611909565b6040518082815260200191505060405180910390f35b6106a86004803603602081101561069257600080fd5b81019080803590602001909291905050506119f5565b60405180806020018360048111156106bc57fe5b60ff168152602001828103825284818151815260200191508051906020019080838360005b838110156106fc5780820151818401526020810190506106e1565b50505050905090810190601f1680156107295780820380516001836020036101000a031916815260200191505b50935050505060405180910390f35b610740611abe565b6040518082815260200191505060405180910390f35b61075e611ac7565b6040518082815260200191505060405180910390f35b61077c611acd565b6040518082815260200191505060405180910390f35b6107be600480360360208110156107a857600080fd5b8101908080359060200190929190505050611ad3565b6040518082815260200191505060405180910390f35b61088d600480360360208110156107ea57600080fd5b810190808035906020019064010000000081111561080757600080fd5b82018360208201111561081957600080fd5b8035906020019184600183028401116401000000008311171561083b57600080fd5b91908080601f016020809104026020016040519081016040528093929190818152602001838380828437600081840152601f19601f820116905080830192505050505050509192919290505050611aeb565b6040518082815260200191505060405180910390f35b6108ab611b19565b604051808273ffffffffffffffffffffffffffffffffffffffff1673ffffffffffffffffffffffffffffffffffffffff16815260200191505060405180910390f35b6109236004803603604081101561090357600080fd5b810190808035906020019092919080359060200190929190505050611b3f565b60405180806020018060200186600481111561093b57fe5b60ff1681526020018573ffffffffffffffffffffffffffffffffffffffff1673ffffffffffffffffffffffffffffffffffffffff168152602001848152602001838103835288818151815260200191508051906020019080838360005b838110156109b3578082015181840152602081019050610998565b50505050905090810190601f1680156109e05780820380516001836020036101000a031916815260200191505b50838103825287818151815260200191508051906020019080838360005b83811015610a195780820151818401526020810190506109fe565b50505050905090810190601f168015610a465780820380516001836020036101000a031916815260200191505b5097505050505050505060405180910390f35b610aaf60048036036060811015610a6f57600080fd5b810190808035906020019092919080359060200190929190803573ffffffffffffffffffffffffffffffffffffffff169060200190929190505050611cdf565b604051808215151515815260200191505060405180910390f35b610b8260048036036020811015610adf57600080fd5b8101908080359060200190640100000000811115610afc57600080fd5b820183602082011115610b0e57600080fd5b80359060200191846001830284011164010000000083111715610b3057600080fd5b91908080601f016020809104026020016040519081016040528093929190818152602001838380828437600081840152601f19601f820116905080830192505050505050509192919290505050611d1b565b604051808215151515815260200191505060405180910390f35b610bc860048036036020811015610bb257600080fd5b8101908080359060200190929190505050611eeb565b6040518082815260200191505060405180910390f35b610c0a60048036036020811015610bf457600080fd5b8101908080359060200190929190505050611f03565b6040518082815260200191505060405180910390f35b610cd960048036036020811015610c3657600080fd5b8101908080359060200190640100000000811115610c5357600080fd5b820183602082011115610c6557600080fd5b80359060200191846001830284011164010000000083111715610c8757600080fd5b91908080601f016020809104026020016040519081016040528093929190818152602001838380828437600081840152601f19601f820116905080830192505050505050509192919290505050611f1b565b604051808215151515815260200191505060405180910390f35b610d3f60048036036040811015610d0957600080fd5b8101908080359060200190929190803573ffffffffffffffffffffffffffffffffffffffff169060200190929190505050612934565b6040518082815260200191505060405180910390f35b600042905090565b600560205281600052604060002060205280600052604060002060009150915050806000018054600181600116156101000203166002900480601f016020809104026020016040519081016040528092919081815260200182805460018160011615610100020316600290048015610e165780601f10610deb57610100808354040283529160200191610e16565b820191906000526020600020905b815481529060010190602001808311610df957829003601f168201915b505050505090806001018054600181600116156101000203166002900480601f016020809104026020016040519081016040528092919081815260200182805460018160011615610100020316600290048015610eb45780601f10610e8957610100808354040283529160200191610eb4565b820191906000526020600020905b815481529060010190602001808311610e9757829003601f168201915b5050505050908060020160009054906101000a900460ff16908060020160019054906101000a900473ffffffffffffffffffffffffffffffffffffffff16908060030154905085565b60015481565b60008260006004826040518082805190602001908083835b60208310610f3e5780518252602082019150602081019050602083039250610f1b565b6001836020036101000a03801982511681845116808217855250505050505090500191505090815260200160405180910390205414610f7c57600080fd5b836003600060016000540181526020019081526020016000206000019080519060200190610fab929190612959565b50600060036000600160005401815260200190815260200160002060010160006101000a81548160ff02191690836004811115610fe457fe5b02179055506001600054016004856040518082805190602001908083835b602083106110255780518252602082019150602081019050602083039250611002565b6001836020036101000a038019825116818451168082178552505050505050905001915050908152602001604051809103902081905550600160096000600160005401815260200190815260200160002060003373ffffffffffffffffffffffffffffffffffffffff1673ffffffffffffffffffffffffffffffffffffffff168152602001908152602001600020819055506040518060a00160405280858152602001848152602001600360048111156110db57fe5b81526020013373ffffffffffffffffffffffffffffffffffffffff1681526020014281525060056000600160005401815260200190815260200160002060006001815260200190815260200160002060008201518160000190805190602001906111469291906129d9565b5060208201518160010190805190602001906111639291906129d9565b5060408201518160020160006101000a81548160ff0219169083600481111561118857fe5b021790555060608201518160020160016101000a81548173ffffffffffffffffffffffffffffffffffffffff021916908373ffffffffffffffffffffffffffffffffffffffff160217905550608082015181600301559050506040518060a001604052808581526020018481526020016003600481111561120557fe5b81526020013373ffffffffffffffffffffffffffffffffffffffff1681526020014281525060066000600160005401815260200190815260200160002060006001815260200190815260200160002060008201518160000190805190602001906112709291906129d9565b50602082015181600101908051906020019061128d9291906129d9565b5060408201518160020160006101000a81548160ff021916908360048111156112b257fe5b021790555060608201518160020160016101000a81548173ffffffffffffffffffffffffffffffffffffffff021916908373ffffffffffffffffffffffffffffffffffffffff16021790555060808201518160030155905050600160076000600160005401815260200190815260200160002081905550600160086000600160005401815260200190815260200160002081905550600160008082825401925050819055507fbd368b7c41e51b6da74220bb2168425c62e64c321d3b5af96304f859b40d10596004856040518082805190602001908083835b602083106113ae578051825260208201915060208101905060208303925061138b565b6001836020036101000a038019825116818451168082178552505050505050905001915050908152602001604051809103902054858533426040518086815260200180602001806020018573ffffffffffffffffffffffffffffffffffffffff1673ffffffffffffffffffffffffffffffffffffffff168152602001848152602001838103835287818151815260200191508051906020019080838360005b8381101561146857808201518184015260208101905061144d565b50505050905090810190601f1680156114955780820380516001836020036101000a031916815260200191505b50838103825286818151815260200191508051906020019080838360005b838110156114ce5780820151818401526020810190506114b3565b50505050905090810190601f1680156114fb5780820380516001836020036101000a031916815260200191505b5097505050505050505060405180910390a1600191505092915050565b60008260006004826040518082805190602001908083835b602083106115535780518252602082019150602081019050602083039250611530565b6001836020036101000a038019825116818451168082178552505050505050905001915050908152602001604051809103902054141561159257600080fd5b83600060048111156115a057fe5b600360006115ad84611909565b815260200190815260200160002060010160009054906101000a900460ff1660048111156115d757fe5b146115e157600080fd5b83600154815111156115f257600080fd5b60006115fd87611909565b90506040518060a001604052808881526020018781526020016002600481111561162357fe5b81526020013373ffffffffffffffffffffffffffffffffffffffff1681526020014281525060056000838152602001908152602001600020600060016007600086815260200190815260200160002054018152602001908152602001600020600082015181600001908051906020019061169e9291906129d9565b5060208201518160010190805190602001906116bb9291906129d9565b5060408201518160020160006101000a81548160ff021916908360048111156116e057fe5b021790555060608201518160020160016101000a81548173ffffffffffffffffffffffffffffffffffffffff021916908373ffffffffffffffffffffffffffffffffffffffff160217905550608082015181600301559050506001600760008381526020019081526020016000206000828254019250508190555060016003600083815260200190815260200160002060010160006101000a81548160ff0219169083600481111561178e57fe5b02179055507fc185f06afe38122dceeff45d7cd0a814c1eb276fecd34a340419cd7439de66df816007600084815260200190815260200160002054898933426040518087815260200186815260200180602001806020018573ffffffffffffffffffffffffffffffffffffffff1673ffffffffffffffffffffffffffffffffffffffff168152602001848152602001838103835287818151815260200191508051906020019080838360005b8381101561185557808201518184015260208101905061183a565b50505050905090810190601f1680156118825780820380516001836020036101000a031916815260200191505b50838103825286818151815260200191508051906020019080838360005b838110156118bb5780820151818401526020810190506118a0565b50505050905090810190601f1680156118e85780820380516001836020036101000a031916815260200191505b509850505050505050505060405180910390a1600194505050505092915050565b60008160006004826040518082805190602001908083835b602083106119445780518252602082019150602081019050602083039250611921565b6001836020036101000a038019825116818451168082178552505050505050905001915050908152602001604051809103902054141561198357600080fd5b6004836040518082805190602001908083835b602083106119b95780518252602082019150602081019050602083039250611996565b6001836020036101000a038019825116818451168082178552505050505050905001915050908152602001604051809103902054915050919050565b6003602052806000526040600020600091509050806000018054600181600116156101000203166002900480601f016020809104026020016040519081016040528092919081815260200182805460018160011615610100020316600290048015611aa15780601f10611a7657610100808354040283529160200191611aa1565b820191906000526020600020905b815481529060010190602001808311611a8457829003601f168201915b5050505050908060010160009054906101000a900460ff16905082565b60008054905090565b60005481565b60025481565b600a6020528060005260406000206000915090505481565b6004818051602081018201805184825260208301602085012081835280955050505050506000915090505481565b600c60009054906101000a900473ffffffffffffffffffffffffffffffffffffffff1681565b600660205281600052604060002060205280600052604060002060009150915050806000018054600181600116156101000203166002900480601f016020809104026020016040519081016040528092919081815260200182805460018160011615610100020316600290048015611bf85780601f10611bcd57610100808354040283529160200191611bf8565b820191906000526020600020905b815481529060010190602001808311611bdb57829003601f168201915b505050505090806001018054600181600116156101000203166002900480601f016020809104026020016040519081016040528092919081815260200182805460018160011615610100020316600290048015611c965780601f10611c6b57610100808354040283529160200191611c96565b820191906000526020600020905b815481529060010190602001808311611c7957829003601f168201915b5050505050908060020160009054906101000a900460ff16908060020160019054906101000a900473ffffffffffffffffffffffffffffffffffffffff16908060030154905085565b600b602052826000526040600020602052816000526040600020602052806000526040600020600092509250509054906101000a900460ff1681565b6000816000611d2982611909565b90506002546005600083815260200190815260200160002060006007600085815260200190815260200160002054815260200190815260200160002060030154014211611d7557600080fd5b8360006004826040518082805190602001908083835b60208310611dae5780518252602082019150602081019050602083039250611d8b565b6001836020036101000a0380198251168184511680821785525050505050509050019150509081526020016040518091039020541415611ded57600080fd5b8460016004811115611dfb57fe5b60036000611e0884611909565b815260200190815260200160002060010160009054906101000a900460ff166004811115611e3257fe5b14611e3c57600080fd5b6000611e4787611909565b905060046005600083815260200190815260200160002060006007600085815260200190815260200160002054815260200190815260200160002060020160006101000a81548160ff02191690836004811115611ea057fe5b021790555060006003600083815260200190815260200160002060010160006101000a81548160ff02191690836004811115611ed857fe5b0217905550600195505050505050919050565b60076020528060005260406000206000915090505481565b60086020528060005260406000206000915090505481565b60008160006004826040518082805190602001908083835b60208310611f565780518252602082019150602081019050602083039250611f33565b6001836020036101000a0380198251168184511680821785525050505050509050019150509081526020016040518091039020541415611f9557600080fd5b8260016004811115611fa357fe5b60036000611fb084611909565b815260200190815260200160002060010160009054906101000a900460ff166004811115611fda57fe5b14611fe457600080fd5b83600060096000611ff484611909565b815260200190815260200160002060003373ffffffffffffffffffffffffffffffffffffffff1673ffffffffffffffffffffffffffffffffffffffff168152602001908152602001600020541161204a57600080fd5b8460001515600b600061205c84611909565b815260200190815260200160002060006007600061207986611909565b815260200190815260200160002054815260200190815260200160002060003373ffffffffffffffffffffffffffffffffffffffff1673ffffffffffffffffffffffffffffffffffffffff16815260200190815260200160002060009054906101000a900460ff161515146120ed57600080fd5b60006120f887611909565b90506001600b600083815260200190815260200160002060006007600085815260200190815260200160002054815260200190815260200160002060003373ffffffffffffffffffffffffffffffffffffffff1673ffffffffffffffffffffffffffffffffffffffff16815260200190815260200160002060006101000a81548160ff0219169083151502179055506009600082815260200190815260200160002060003373ffffffffffffffffffffffffffffffffffffffff1673ffffffffffffffffffffffffffffffffffffffff16815260200190815260200160002054600a6000838152602001908152602001600020600082825401925050819055506000809050600260086000848152602001908152602001600020548161221a57fe5b04600a600084815260200190815260200160002054111561223a57600190505b7fd17c8c0ae2c85b5520a0f987b17cf32f75e6e86c211bc83ada3b989d105ce62d6004896040518082805190602001908083835b60208310612291578051825260208201915060208101905060208303925061226e565b6001836020036101000a03801982511681845116808217855250505050505090500191505090815260200160405180910390205460076000858152602001908152602001600020548a33428660405180878152602001868152602001806020018573ffffffffffffffffffffffffffffffffffffffff1673ffffffffffffffffffffffffffffffffffffffff16815260200184815260200183151515158152602001828103825286818151815260200191508051906020019080838360005b8381101561236b578082015181840152602081019050612350565b50505050905090810190601f1680156123985780820380516001836020036101000a031916815260200191505b5097505050505050505060405180910390a16001151581151514156129255760036005600084815260200190815260200160002060006007600086815260200190815260200160002054815260200190815260200160002060020160006101000a81548160ff0219169083600481111561240e57fe5b02179055506005600083815260200190815260200160002060006007600085815260200190815260200160002054815260200190815260200160002060066000848152602001908152602001600020600060016008600087815260200190815260200160002054018152602001908152602001600020600082018160000190805460018160011615610100020316600290046124ab929190612a59565b50600182018160010190805460018160011615610100020316600290046124d3929190612a59565b506002820160009054906101000a900460ff168160020160006101000a81548160ff0219169083600481111561250557fe5b02179055506002820160019054906101000a900473ffffffffffffffffffffffffffffffffffffffff168160020160016101000a81548173ffffffffffffffffffffffffffffffffffffffff021916908373ffffffffffffffffffffffffffffffffffffffff160217905550600382015481600301559050506001600860008481526020019081526020016000206000828254019250508190555060006003600084815260200190815260200160002060010160006101000a81548160ff021916908360048111156125d357fe5b021790555060016009600084815260200190815260200160002060006005600086815260200190815260200160002060006007600088815260200190815260200160002054815260200190815260200160002060020160019054906101000a900473ffffffffffffffffffffffffffffffffffffffff1673ffffffffffffffffffffffffffffffffffffffff1673ffffffffffffffffffffffffffffffffffffffff16815260200190815260200160002060008282540192505081905550600190507fd21a1a640751a54d3bec1b7d4f61f8dd65fd63c78c5a8cd92abbd9a5c5100ce882600760008581526020019081526020016000205460086000868152602001908152602001600020548b600660008881526020019081526020016000206000600860008a8152602001908152602001600020548152602001908152602001600020600101600660008981526020019081526020016000206000600860008b815260200190815260200160002054815260200190815260200160002060020160019054906101000a900473ffffffffffffffffffffffffffffffffffffffff1660026001600860008c815260200190815260200160002054038161279557fe5b04600a60008b81526020019081526020016000205442604051808a815260200189815260200188815260200180602001806020018773ffffffffffffffffffffffffffffffffffffffff1673ffffffffffffffffffffffffffffffffffffffff168152602001868152602001858152602001848152602001838103835289818151815260200191508051906020019080838360005b8381101561284557808201518184015260208101905061282a565b50505050905090810190601f1680156128725780820380516001836020036101000a031916815260200191505b508381038252888181546001816001161561010002031660029004815260200191508054600181600116156101000203166002900480156128f45780601f106128c9576101008083540402835291602001916128f4565b820191906000526020600020905b8154815290600101906020018083116128d757829003601f168201915b50509b50505050505050505050505060405180910390a16000600a6000848152602001908152602001600020819055505b60019650505050505050919050565b6009602052816000526040600020602052806000526040600020600091509150505481565b828054600181600116156101000203166002900490600052602060002090601f016020900481019282601f1061299a57805160ff19168380011785556129c8565b828001600101855582156129c8579182015b828111156129c75782518255916020019190600101906129ac565b5b5090506129d59190612ae0565b5090565b828054600181600116156101000203166002900490600052602060002090601f016020900481019282601f10612a1a57805160ff1916838001178555612a48565b82800160010185558215612a48579182015b82811115612a47578251825591602001919060010190612a2c565b5b509050612a559190612ae0565b5090565b828054600181600116156101000203166002900490600052602060002090601f016020900481019282601f10612a925780548555612acf565b82800160010185558215612acf57600052602060002091601f016020900482015b82811115612ace578254825591600101919060010190612ab3565b5b509050612adc9190612ae0565b5090565b612b0291905b80821115612afe576000816000905550600101612ae6565b5090565b9056fea265627a7a72315820220fcb28f01f5112ea0482704d7006b791a6313c93e40eaa0c3f30744b10e9f464736f6c63430005100032",
  "source": "\n// SPDX-License-Identifier: MIT\npragma solidity >=0.4.21 <0.7.0;\n\ncontract WhatIs {\n\n  // **OBJECTS**\n\n  // Define What struct\n  struct What { \n    string name;\n    State state;\n  }\n\n  // Define Entry struct\n  struct Entry { \n    string what;\n    string content;\n    State state;\n    address proposer;\n    uint proposedTimestamp;\n  }\n  \n  // Create a counter for the number of unique Whats\n  uint public whatCount;\n  // Define the states Whats and Entries can be in\n  enum State{Open, Voting, Proposed, Accepted, Rejected}\n\n  // **SETTINGS**\n\n  // Define max number of bytes for an Entry\n  uint public maxEntryBytes = 10;\n  // Define the minimum vote duration before an entry can be rejected\n  uint public voteDuration = 86400;\n  \n  // **MAPPINGS**\n\n  // Create a bidirectional mapping between whats and ids\n  mapping (uint => What) public whats;\n  mapping (string => uint) public ids;\n  // Create entry mappings and counts\n  mapping(uint => mapping(uint => Entry)) public proposedEntries;\n  mapping(uint => mapping(uint => Entry)) public acceptedEntries;\n  mapping(uint => uint) public proposedEntriesCount;\n  mapping(uint => uint) public acceptedEntriesCount;\n  // Create ownership mappings\n  mapping(uint => mapping(address => uint)) public ownership;\n  // Create votes mapping\n  mapping(uint => uint) public votes;\n  // Creates voted mapping to track who has voted\n  mapping(uint => mapping(uint => mapping(address => bool))) public voted;\n\n  // **EVENTS**\n\n  event LogWhatCreated(\n    uint id, \n    string name, \n    string entry, \n    address creator,\n    uint createdTimestamp\n    );\n\n  event LogEntryProposed(\n    uint what_id, \n    uint proposed_entry_id, \n    string name, \n    string entry, \n    address proposer, \n    uint proposedTimestamp\n    );\n\n  event LogVoted(\n    uint what_id, \n    uint proposed_entry_id, \n    string name, \n    address voter, \n    uint votedTimestamp,\n    bool pivotal\n    );\n\n  event LogEntryAccepted(\n    uint what_id, \n    uint proposed_entry_id,\n    uint accepted_entry_id,\n    string name, \n    string content,\n    address proposer,\n    uint votesRequired,\n    uint votesReceived,\n    uint acceptedTimestamp\n    );\n\n  // **MODIFIERS**\n  modifier doesNotExist (string memory _name) { \n    // check that What is not already in the mapping\n    require(ids[_name] == 0);\n    _;\n  }\n\n  modifier doesExist (string memory _name) { \n    // check that What is already in the mapping\n    require(ids[_name] != 0);\n    _;\n  }\n\n  modifier meetsLengthLimits (string memory _entry) { \n    // check that an entry isn't too long\n    require(bytes(_entry).length <= maxEntryBytes);\n    _;\n  }\n\n  modifier isOpen (string memory _name) { \n    // check that What is in an open state\n    require(whats[getWhatID(_name)].state == State.Open);\n    _;\n  }\n\n  modifier isVoting (string memory _name) { \n    // check that What is a voting state\n    require(whats[getWhatID(_name)].state == State.Voting);\n    _;\n  }\n\n  modifier isOwner (string memory _name) { \n    // check that a sender is an owner of the What, i.e. entitled to vote\n    require(ownership[getWhatID(_name)][msg.sender] > 0);\n    _;\n  }\n\n  modifier hasNotAlreadyVoted (string memory _name) { \n    // check that a voter has not already voted on an entry\n    require(voted[getWhatID(_name)][proposedEntriesCount[getWhatID(_name)]][msg.sender] == false);\n    _;\n  }\n\n  modifier isExpired (string memory _name) { \n    // check whether a vote has already been active for a day\n    uint id = getWhatID(_name);\n    require(now > proposedEntries[id][proposedEntriesCount[id]].proposedTimestamp + voteDuration);\n    _;\n  }\n\n  // **CONSTRUCTOR**\n\n  // Define the owner\n  address public owner;\n\n  constructor() public {\n    // 1. Set the owner to the transaction sender\n    owner = msg.sender;\n    // 2. Initialize the sku count to 0.\n    whatCount = 0;\n  }\n\n  // **FUNCTIONS**\n\n  function createWhat(string memory _name, string memory _entry) \n    public \n    doesNotExist(_name) \n    returns (bool) \n    {\n    // 1. Create the What\n    whats[whatCount+1].name = _name;\n    whats[whatCount+1].state = State.Open;\n    // 2. Write the entry and mark the ownership\n    ids[_name] = whatCount+1;\n    ownership[whatCount+1][msg.sender] = 1;\n    proposedEntries[whatCount+1][1] = Entry({\n      what: _name,\n      content: _entry,\n      state: State.Accepted,\n      proposer: msg.sender,\n      proposedTimestamp: now\n    });\n    acceptedEntries[whatCount+1][1] = Entry({\n      what: _name,\n      content: _entry,\n      state: State.Accepted,\n      proposer: msg.sender,\n      proposedTimestamp: now\n    });\n    proposedEntriesCount[whatCount+1] = 1;\n    acceptedEntriesCount[whatCount+1] = 1;\n    // 3. Advance the whatCount\n    whatCount += 1;\n    // 4. Emit the event\n    emit LogWhatCreated(ids[_name],_name, _entry, msg.sender, now);\n    // 5. Return true\n    return true;\n    }\n\n  function getWhatID(string memory _name)\n    public \n    doesExist(_name)\n    returns (uint)\n    {\n      return ids[_name];\n    }\n\n  function getWhatCount()\n    public \n    returns (uint)\n    {\n      return whatCount;\n    }\n\n  function proposeEntry(string memory _name, string memory _entry)\n    public\n    doesExist(_name)\n    isOpen(_name)\n    meetsLengthLimits(_entry)\n    returns (bool)\n    {\n      uint id = getWhatID(_name);\n      proposedEntries[id][proposedEntriesCount[id]+1] = Entry({\n        what: _name,\n        content: _entry,\n        state: State.Proposed,\n        proposer: msg.sender,\n        proposedTimestamp: now\n      });\n      proposedEntriesCount[id] += 1;\n      whats[id].state = State.Voting;\n      emit LogEntryProposed(id,proposedEntriesCount[id], _name, _entry, msg.sender, now);\n      return true;\n    }\n\n  function vote(string memory _name)\n    public\n    doesExist(_name)\n    isVoting(_name)\n    isOwner(_name)\n    hasNotAlreadyVoted(_name)\n    returns (bool)\n    {\n      uint id = getWhatID(_name);\n      voted[id][proposedEntriesCount[id]][msg.sender]=true;\n      votes[id] += ownership[id][msg.sender];\n      // Check if the vote was pivotal\n      bool pivotal = false;\n      if (votes[id] > acceptedEntriesCount[id]/2) {\n        pivotal = true;\n      }\n      emit LogVoted(ids[_name],proposedEntriesCount[id],_name, msg.sender, now, pivotal);\n      // If that vote is pivotal, we terminate the vote and accept the entry\n      if (pivotal == true) {\n        // Accept the entry\n        proposedEntries[id][proposedEntriesCount[id]].state = State.Accepted;\n        acceptedEntries[id][acceptedEntriesCount[id]+1] = proposedEntries[id][proposedEntriesCount[id]];\n        acceptedEntriesCount[id] += 1;\n        // Put the What back in an open state\n        whats[id].state = State.Open;\n        // Credit the proposer with an ownership token\n        ownership[id][proposedEntries[id][proposedEntriesCount[id]].proposer] += 1;\n        pivotal = true;\n        emit LogEntryAccepted(id,proposedEntriesCount[id],acceptedEntriesCount[id],\n         _name, acceptedEntries[id][acceptedEntriesCount[id]].content, \n         acceptedEntries[id][acceptedEntriesCount[id]].proposer,\n         (acceptedEntriesCount[id]-1)/2, votes[id], now);\n        votes[id] = 0;\n      }\n      return true;\n    }\n\n  function getCurrentTime() \n    public \n    returns (uint256)\n    {\n      return now;\n    }\n\n  function rejectEntry(string memory _name)\n    public \n    isExpired(_name)\n    doesExist(_name)\n    isVoting(_name)\n    returns (bool)\n    {\n      uint id = getWhatID(_name);\n      proposedEntries[id][proposedEntriesCount[id]].state = State.Rejected;\n      whats[id].state = State.Open;\n      return true;\n    }\n\n\n\n    // function deleteWhat(string memory _name) \n    // public returns (bool) \n    // {\n    // delete whats[_name];\n    // return true;\n    // }\n\n    // function checkWhat(string memory _name) \n    // // 1. Check that What doesn't already exist\n    // // [TD] doesNotExist(what)\n    // public returns (bool) \n    // {\n    // return true;\n    // }\n\n//  function fetchWhatByID(uint _id) public view  \n//     returns (string memory name, uint id, string memory content, State state, address creator, address lastContributor, bool exists) \n//     { \n//     name = whats[_id].name; \n//     id = whats[_id].id; \n//     content = whats[_id].content; \n//     state = whats[_id].state; \n//     creator = whats[_id].creator; \n//     lastContributor = whats[_id].lastContributor; \n//     exists = whats[_id].exists;\n//     // emit LogFetched(name,_id);\n//     return (name, id, content, state, creator, lastContributor, exists);\n//     }\n\n//  function fetchWhatByName(string memory _name) public view  \n//     returns (string memory name, uint id, string memory content, State state, address creator, address lastContributor, bool exists) \n//     { \n//     name = whats[_name].name; \n//     id = whats[_name].id; \n//     content = whats[_name].content; \n//     state = whats[_name].state; \n//     creator = whats[_name].creator; \n//     lastContributor = whats[_name].lastContributor; \n//     exists = whats[_name].exists;\n//     // emit LogFetched(name,_id);\n//     return (name, id, content, state, creator, lastContributor, exists);\n//     }\n}",
  "sourcePath": "/home/shaneauerbach/github/blockchain-developer-bootcamp-final-project/contracts/WhatIs.sol",
  "compiler": {
    "name": "solc",
    "version": "0.5.16+commit.9c3226ce.Emscripten.clang"
  },
  "schemaVersion": "3.4.3",
  "updatedAt": "2021-11-05T20:48:05.742Z",
  "networkType": "ethereum",
  "devdoc": {
    "methods": {}
  },
  "userdoc": {
    "methods": {}
  }
}