{
  "contractName": "WhatIs",
  "abi": [
    {
      "inputs": [],
      "stateMutability": "nonpayable",
      "type": "constructor"
    },
    {
      "anonymous": false,
      "inputs": [
        {
          "indexed": false,
          "internalType": "uint256",
          "name": "what_id",
          "type": "uint256"
        },
        {
          "indexed": false,
          "internalType": "uint256",
          "name": "proposed_entry_id",
          "type": "uint256"
        },
        {
          "indexed": false,
          "internalType": "uint256",
          "name": "accepted_entry_id",
          "type": "uint256"
        },
        {
          "indexed": false,
          "internalType": "string",
          "name": "name",
          "type": "string"
        },
        {
          "indexed": false,
          "internalType": "string",
          "name": "content",
          "type": "string"
        },
        {
          "indexed": false,
          "internalType": "address",
          "name": "proposer",
          "type": "address"
        },
        {
          "indexed": false,
          "internalType": "uint256",
          "name": "votesRequired",
          "type": "uint256"
        },
        {
          "indexed": false,
          "internalType": "uint256",
          "name": "votesReceived",
          "type": "uint256"
        },
        {
          "indexed": false,
          "internalType": "uint256",
          "name": "acceptedTimestamp",
          "type": "uint256"
        }
      ],
      "name": "LogEntryAccepted",
      "type": "event"
    },
    {
      "anonymous": false,
      "inputs": [
        {
          "indexed": false,
          "internalType": "uint256",
          "name": "what_id",
          "type": "uint256"
        },
        {
          "indexed": false,
          "internalType": "uint256",
          "name": "proposed_entry_id",
          "type": "uint256"
        },
        {
          "indexed": false,
          "internalType": "string",
          "name": "name",
          "type": "string"
        },
        {
          "indexed": false,
          "internalType": "string",
          "name": "entry",
          "type": "string"
        },
        {
          "indexed": false,
          "internalType": "address",
          "name": "proposer",
          "type": "address"
        },
        {
          "indexed": false,
          "internalType": "uint256",
          "name": "proposedTimestamp",
          "type": "uint256"
        }
      ],
      "name": "LogEntryProposed",
      "type": "event"
    },
    {
      "anonymous": false,
      "inputs": [
        {
          "indexed": false,
          "internalType": "uint256",
          "name": "what_id",
          "type": "uint256"
        },
        {
          "indexed": false,
          "internalType": "uint256",
          "name": "proposed_entry_id",
          "type": "uint256"
        },
        {
          "indexed": false,
          "internalType": "string",
          "name": "name",
          "type": "string"
        },
        {
          "indexed": false,
          "internalType": "string",
          "name": "content",
          "type": "string"
        },
        {
          "indexed": false,
          "internalType": "address",
          "name": "proposer",
          "type": "address"
        },
        {
          "indexed": false,
          "internalType": "uint256",
          "name": "votesRequired",
          "type": "uint256"
        },
        {
          "indexed": false,
          "internalType": "uint256",
          "name": "votesReceived",
          "type": "uint256"
        },
        {
          "indexed": false,
          "internalType": "uint256",
          "name": "rejectedTimestamp",
          "type": "uint256"
        }
      ],
      "name": "LogEntryRejected",
      "type": "event"
    },
    {
      "anonymous": false,
      "inputs": [
        {
          "indexed": false,
          "internalType": "uint256",
          "name": "what_id",
          "type": "uint256"
        },
        {
          "indexed": false,
          "internalType": "uint256",
          "name": "proposed_entry_id",
          "type": "uint256"
        },
        {
          "indexed": false,
          "internalType": "string",
          "name": "name",
          "type": "string"
        },
        {
          "indexed": false,
          "internalType": "address",
          "name": "voter",
          "type": "address"
        },
        {
          "indexed": false,
          "internalType": "uint256",
          "name": "votedTimestamp",
          "type": "uint256"
        },
        {
          "indexed": false,
          "internalType": "bool",
          "name": "pivotal",
          "type": "bool"
        }
      ],
      "name": "LogVoted",
      "type": "event"
    },
    {
      "anonymous": false,
      "inputs": [
        {
          "indexed": false,
          "internalType": "uint256",
          "name": "id",
          "type": "uint256"
        },
        {
          "indexed": false,
          "internalType": "string",
          "name": "name",
          "type": "string"
        },
        {
          "indexed": false,
          "internalType": "string",
          "name": "entry",
          "type": "string"
        },
        {
          "indexed": false,
          "internalType": "address",
          "name": "creator",
          "type": "address"
        },
        {
          "indexed": false,
          "internalType": "uint256",
          "name": "createdTimestamp",
          "type": "uint256"
        }
      ],
      "name": "LogWhatCreated",
      "type": "event"
    },
    {
      "anonymous": false,
      "inputs": [
        {
          "indexed": true,
          "internalType": "address",
          "name": "previousOwner",
          "type": "address"
        },
        {
          "indexed": true,
          "internalType": "address",
          "name": "newOwner",
          "type": "address"
        }
      ],
      "name": "OwnershipTransferred",
      "type": "event"
    },
    {
      "anonymous": false,
      "inputs": [
        {
          "indexed": false,
          "internalType": "address",
          "name": "account",
          "type": "address"
        }
      ],
      "name": "Paused",
      "type": "event"
    },
    {
      "anonymous": false,
      "inputs": [
        {
          "indexed": false,
          "internalType": "address",
          "name": "account",
          "type": "address"
        }
      ],
      "name": "Unpaused",
      "type": "event"
    },
    {
      "inputs": [
        {
          "internalType": "uint256",
          "name": "",
          "type": "uint256"
        },
        {
          "internalType": "uint256",
          "name": "",
          "type": "uint256"
        }
      ],
      "name": "acceptedEntries",
      "outputs": [
        {
          "internalType": "string",
          "name": "what",
          "type": "string"
        },
        {
          "internalType": "string",
          "name": "content",
          "type": "string"
        },
        {
          "internalType": "enum WhatIs.State",
          "name": "state",
          "type": "uint8"
        },
        {
          "internalType": "address",
          "name": "proposer",
          "type": "address"
        },
        {
          "internalType": "uint256",
          "name": "proposedTimestamp",
          "type": "uint256"
        }
      ],
      "stateMutability": "view",
      "type": "function",
      "constant": true
    },
    {
      "inputs": [
        {
          "internalType": "uint256",
          "name": "",
          "type": "uint256"
        }
      ],
      "name": "acceptedEntriesCount",
      "outputs": [
        {
          "internalType": "uint256",
          "name": "",
          "type": "uint256"
        }
      ],
      "stateMutability": "view",
      "type": "function",
      "constant": true
    },
    {
      "inputs": [
        {
          "internalType": "string",
          "name": "",
          "type": "string"
        }
      ],
      "name": "ids",
      "outputs": [
        {
          "internalType": "uint256",
          "name": "",
          "type": "uint256"
        }
      ],
      "stateMutability": "view",
      "type": "function",
      "constant": true
    },
    {
      "inputs": [],
      "name": "maxEntryBytes",
      "outputs": [
        {
          "internalType": "uint256",
          "name": "",
          "type": "uint256"
        }
      ],
      "stateMutability": "view",
      "type": "function",
      "constant": true
    },
    {
      "inputs": [],
      "name": "owner",
      "outputs": [
        {
          "internalType": "address",
          "name": "",
          "type": "address"
        }
      ],
      "stateMutability": "view",
      "type": "function",
      "constant": true
    },
    {
      "inputs": [
        {
          "internalType": "uint256",
          "name": "",
          "type": "uint256"
        },
        {
          "internalType": "address",
          "name": "",
          "type": "address"
        }
      ],
      "name": "ownership",
      "outputs": [
        {
          "internalType": "uint256",
          "name": "",
          "type": "uint256"
        }
      ],
      "stateMutability": "view",
      "type": "function",
      "constant": true
    },
    {
      "inputs": [],
      "name": "paused",
      "outputs": [
        {
          "internalType": "bool",
          "name": "",
          "type": "bool"
        }
      ],
      "stateMutability": "view",
      "type": "function",
      "constant": true
    },
    {
      "inputs": [
        {
          "internalType": "uint256",
          "name": "",
          "type": "uint256"
        },
        {
          "internalType": "uint256",
          "name": "",
          "type": "uint256"
        }
      ],
      "name": "proposedEntries",
      "outputs": [
        {
          "internalType": "string",
          "name": "what",
          "type": "string"
        },
        {
          "internalType": "string",
          "name": "content",
          "type": "string"
        },
        {
          "internalType": "enum WhatIs.State",
          "name": "state",
          "type": "uint8"
        },
        {
          "internalType": "address",
          "name": "proposer",
          "type": "address"
        },
        {
          "internalType": "uint256",
          "name": "proposedTimestamp",
          "type": "uint256"
        }
      ],
      "stateMutability": "view",
      "type": "function",
      "constant": true
    },
    {
      "inputs": [
        {
          "internalType": "uint256",
          "name": "",
          "type": "uint256"
        }
      ],
      "name": "proposedEntriesCount",
      "outputs": [
        {
          "internalType": "uint256",
          "name": "",
          "type": "uint256"
        }
      ],
      "stateMutability": "view",
      "type": "function",
      "constant": true
    },
    {
      "inputs": [],
      "name": "renounceOwnership",
      "outputs": [],
      "stateMutability": "nonpayable",
      "type": "function"
    },
    {
      "inputs": [
        {
          "internalType": "address",
          "name": "newOwner",
          "type": "address"
        }
      ],
      "name": "transferOwnership",
      "outputs": [],
      "stateMutability": "nonpayable",
      "type": "function"
    },
    {
      "inputs": [],
      "name": "voteDuration",
      "outputs": [
        {
          "internalType": "uint256",
          "name": "",
          "type": "uint256"
        }
      ],
      "stateMutability": "view",
      "type": "function",
      "constant": true
    },
    {
      "inputs": [
        {
          "internalType": "uint256",
          "name": "",
          "type": "uint256"
        },
        {
          "internalType": "uint256",
          "name": "",
          "type": "uint256"
        },
        {
          "internalType": "address",
          "name": "",
          "type": "address"
        }
      ],
      "name": "voted",
      "outputs": [
        {
          "internalType": "bool",
          "name": "",
          "type": "bool"
        }
      ],
      "stateMutability": "view",
      "type": "function",
      "constant": true
    },
    {
      "inputs": [
        {
          "internalType": "uint256",
          "name": "",
          "type": "uint256"
        }
      ],
      "name": "votes",
      "outputs": [
        {
          "internalType": "uint256",
          "name": "",
          "type": "uint256"
        }
      ],
      "stateMutability": "view",
      "type": "function",
      "constant": true
    },
    {
      "inputs": [],
      "name": "whatCount",
      "outputs": [
        {
          "internalType": "uint256",
          "name": "",
          "type": "uint256"
        }
      ],
      "stateMutability": "view",
      "type": "function",
      "constant": true
    },
    {
      "inputs": [
        {
          "internalType": "uint256",
          "name": "",
          "type": "uint256"
        }
      ],
      "name": "whats",
      "outputs": [
        {
          "internalType": "string",
          "name": "name",
          "type": "string"
        },
        {
          "internalType": "enum WhatIs.State",
          "name": "state",
          "type": "uint8"
        }
      ],
      "stateMutability": "view",
      "type": "function",
      "constant": true
    },
    {
      "inputs": [
        {
          "internalType": "string",
          "name": "_name",
          "type": "string"
        },
        {
          "internalType": "string",
          "name": "_entry",
          "type": "string"
        }
      ],
      "name": "createWhat",
      "outputs": [
        {
          "internalType": "bool",
          "name": "",
          "type": "bool"
        }
      ],
      "stateMutability": "nonpayable",
      "type": "function"
    },
    {
      "inputs": [
        {
          "internalType": "string",
          "name": "_name",
          "type": "string"
        }
      ],
      "name": "getWhatID",
      "outputs": [
        {
          "internalType": "uint256",
          "name": "",
          "type": "uint256"
        }
      ],
      "stateMutability": "view",
      "type": "function",
      "constant": true
    },
    {
      "inputs": [],
      "name": "getWhatCount",
      "outputs": [
        {
          "internalType": "uint256",
          "name": "",
          "type": "uint256"
        }
      ],
      "stateMutability": "view",
      "type": "function",
      "constant": true
    },
    {
      "inputs": [
        {
          "internalType": "string",
          "name": "_name",
          "type": "string"
        },
        {
          "internalType": "string",
          "name": "_entry",
          "type": "string"
        }
      ],
      "name": "proposeEntry",
      "outputs": [
        {
          "internalType": "bool",
          "name": "",
          "type": "bool"
        }
      ],
      "stateMutability": "nonpayable",
      "type": "function"
    },
    {
      "inputs": [
        {
          "internalType": "string",
          "name": "_name",
          "type": "string"
        }
      ],
      "name": "vote",
      "outputs": [
        {
          "internalType": "bool",
          "name": "",
          "type": "bool"
        }
      ],
      "stateMutability": "nonpayable",
      "type": "function"
    },
    {
      "inputs": [
        {
          "internalType": "string",
          "name": "_name",
          "type": "string"
        }
      ],
      "name": "rejectEntry",
      "outputs": [
        {
          "internalType": "bool",
          "name": "",
          "type": "bool"
        }
      ],
      "stateMutability": "nonpayable",
      "type": "function"
    }
  ],
  "bytecode": "0x6080604052600a600255620151806003553480156200001d57600080fd5b5060008060006101000a81548160ff021916908315150217905550620000586200004c6200005e60201b60201c565b6200006660201b60201c565b6200012b565b600033905090565b60008060019054906101000a900473ffffffffffffffffffffffffffffffffffffffff16905081600060016101000a81548173ffffffffffffffffffffffffffffffffffffffff021916908373ffffffffffffffffffffffffffffffffffffffff1602179055508173ffffffffffffffffffffffffffffffffffffffff168173ffffffffffffffffffffffffffffffffffffffff167f8be0079c531659141344cd1fd0a4f28419497f9722a3daafe3b4186f6b6457e060405160405180910390a35050565b612f69806200013b6000396000f3fe608060405234801561001057600080fd5b50600436106101425760003560e01c8063715018a6116100b8578063d37f2f8b1161007c578063d37f2f8b146103be578063d4f1a5b2146103ee578063f2fde38b1461041e578063f9d7a0be1461043a578063fc36e15b1461046a578063fe7358441461049a57610142565b8063715018a6146103025780638a08677d1461030c5780638da5cb5b1461033c578063a26cca931461035a578063ca014fcd1461038e57610142565b80634d5f0f021161010a5780634d5f0f02146102295780634e4f86d01461025a5780634fd97f891461027857806356364499146102965780635c975abb146102b45780635df81330146102d257610142565b80632a527f0f146101475780632d8d83f71461017b578063363e55ad146101995780633ce16720146101c95780633f82794c146101f9575b600080fd5b610161600480360381019061015c919061256d565b6104ca565b604051610172959493929190612881565b60405180910390f35b61018361064a565b6040516101909190612942565b60405180910390f35b6101b360048036038101906101ae919061249c565b610650565b6040516101c09190612836565b60405180910390f35b6101e360048036038101906101de919061249c565b610bfa565b6040516101f09190612836565b60405180910390f35b610213600480360381019061020e919061245b565b610fc7565b6040516102209190612942565b60405180910390f35b610243600480360381019061023e9190612508565b61101d565b604051610251929190612851565b60405180910390f35b6102626110d6565b60405161026f9190612942565b60405180910390f35b6102806110e0565b60405161028d9190612942565b60405180910390f35b61029e6110e6565b6040516102ab9190612942565b60405180910390f35b6102bc6110ec565b6040516102c99190612836565b60405180910390f35b6102ec60048036038101906102e79190612508565b611102565b6040516102f99190612942565b60405180910390f35b61030a61111a565b005b6103266004803603810190610321919061245b565b6111a2565b6040516103339190612942565b60405180910390f35b6103446111d0565b604051610351919061281b565b60405180910390f35b610374600480360381019061036f919061256d565b6111f9565b604051610385959493929190612881565b60405180910390f35b6103a860048036038101906103a391906125a9565b611379565b6040516103b59190612836565b60405180910390f35b6103d860048036038101906103d3919061245b565b6113b5565b6040516103e59190612836565b60405180910390f35b61040860048036038101906104039190612508565b611782565b6040516104159190612942565b60405180910390f35b61043860048036038101906104339190612432565b61179a565b005b610454600480360381019061044f9190612508565b611892565b6040516104619190612942565b60405180910390f35b610484600480360381019061047f919061245b565b6118aa565b6040516104919190612836565b60405180910390f35b6104b460048036038101906104af9190612531565b61217e565b6040516104c19190612942565b60405180910390f35b6006602052816000526040600020602052806000526040600020600091509150508060000180546104fa90612dc3565b80601f016020809104026020016040519081016040528092919081815260200182805461052690612dc3565b80156105735780601f1061054857610100808354040283529160200191610573565b820191906000526020600020905b81548152906001019060200180831161055657829003601f168201915b50505050509080600101805461058890612dc3565b80601f01602080910402602001604051908101604052809291908181526020018280546105b490612dc3565b80156106015780601f106105d657610100808354040283529160200191610601565b820191906000526020600020905b8154815290600101906020018083116105e457829003601f168201915b5050505050908060020160009054906101000a900460ff16908060020160019054906101000a900473ffffffffffffffffffffffffffffffffffffffff16908060030154905085565b60025481565b600061065a6110ec565b1561069a576040517f08c379a000000000000000000000000000000000000000000000000000000000815260040161069190612902565b60405180910390fd5b8260006005826040516106ad9190612804565b908152602001604051809103902054146106c657600080fd5b82600254815111156106d757600080fd5b8460046000600180546106ea9190612c59565b8152602001908152602001600020600001908051906020019061070e929190612270565b50600060046000600180546107239190612c59565b815260200190815260200160002060010160006101000a81548160ff0219169083600481111561077c577f4e487b7100000000000000000000000000000000000000000000000000000000600052602160045260246000fd5b02179055506001805461078f9190612c59565b60058660405161079f9190612804565b9081526020016040518091039020819055506001600a6000600180546107c59190612c59565b815260200190815260200160002060003373ffffffffffffffffffffffffffffffffffffffff1673ffffffffffffffffffffffffffffffffffffffff168152602001908152602001600020819055506040518060a0016040528086815260200185815260200160036004811115610865577f4e487b7100000000000000000000000000000000000000000000000000000000600052602160045260246000fd5b81526020013373ffffffffffffffffffffffffffffffffffffffff16815260200142815250600660006001805461089c9190612c59565b815260200190815260200160002060006001815260200190815260200160002060008201518160000190805190602001906108d8929190612270565b5060208201518160010190805190602001906108f5929190612270565b5060408201518160020160006101000a81548160ff02191690836004811115610947577f4e487b7100000000000000000000000000000000000000000000000000000000600052602160045260246000fd5b021790555060608201518160020160016101000a81548173ffffffffffffffffffffffffffffffffffffffff021916908373ffffffffffffffffffffffffffffffffffffffff160217905550608082015181600301559050506040518060a00160405280868152602001858152602001600360048111156109f1577f4e487b7100000000000000000000000000000000000000000000000000000000600052602160045260246000fd5b81526020013373ffffffffffffffffffffffffffffffffffffffff168152602001428152506007600060018054610a289190612c59565b81526020019081526020016000206000600181526020019081526020016000206000820151816000019080519060200190610a64929190612270565b506020820151816001019080519060200190610a81929190612270565b5060408201518160020160006101000a81548160ff02191690836004811115610ad3577f4e487b7100000000000000000000000000000000000000000000000000000000600052602160045260246000fd5b021790555060608201518160020160016101000a81548173ffffffffffffffffffffffffffffffffffffffff021916908373ffffffffffffffffffffffffffffffffffffffff1602179055506080820151816003015590505060016008600060018054610b409190612c59565b81526020019081526020016000208190555060016009600060018054610b669190612c59565b8152602001908152602001600020819055506001806000828254610b8a9190612c59565b925050819055507fbd368b7c41e51b6da74220bb2168425c62e64c321d3b5af96304f859b40d1059600586604051610bc29190612804565b90815260200160405180910390205486863342604051610be695949392919061295d565b60405180910390a160019250505092915050565b6000610c046110ec565b15610c44576040517f08c379a0000000000000000000000000000000000000000000000000000000008152600401610c3b90612902565b60405180910390fd5b826000600582604051610c579190612804565b9081526020016040518091039020541415610c7157600080fd5b8360006004811115610cac577f4e487b7100000000000000000000000000000000000000000000000000000000600052602160045260246000fd5b60046000610cb984610fc7565b815260200190815260200160002060010160009054906101000a900460ff166004811115610d10577f4e487b7100000000000000000000000000000000000000000000000000000000600052602160045260246000fd5b14610d1a57600080fd5b8360025481511115610d2b57600080fd5b6000610d3687610fc7565b90506040518060a0016040528088815260200187815260200160026004811115610d89577f4e487b7100000000000000000000000000000000000000000000000000000000600052602160045260246000fd5b81526020013373ffffffffffffffffffffffffffffffffffffffff1681526020014281525060066000838152602001908152602001600020600060016008600086815260200190815260200160002054610de39190612c59565b81526020019081526020016000206000820151816000019080519060200190610e0d929190612270565b506020820151816001019080519060200190610e2a929190612270565b5060408201518160020160006101000a81548160ff02191690836004811115610e7c577f4e487b7100000000000000000000000000000000000000000000000000000000600052602160045260246000fd5b021790555060608201518160020160016101000a81548173ffffffffffffffffffffffffffffffffffffffff021916908373ffffffffffffffffffffffffffffffffffffffff160217905550608082015181600301559050506001600860008381526020019081526020016000206000828254610ef99190612c59565b9250508190555060016004600083815260200190815260200160002060010160006101000a81548160ff02191690836004811115610f60577f4e487b7100000000000000000000000000000000000000000000000000000000600052602160045260246000fd5b02179055507fc185f06afe38122dceeff45d7cd0a814c1eb276fecd34a340419cd7439de66df81600860008481526020019081526020016000205489893342604051610fb196959493929190612a26565b60405180910390a1600194505050505092915050565b6000816000600582604051610fdc9190612804565b9081526020016040518091039020541415610ff657600080fd5b6005836040516110069190612804565b908152602001604051809103902054915050919050565b600460205280600052604060002060009150905080600001805461104090612dc3565b80601f016020809104026020016040519081016040528092919081815260200182805461106c90612dc3565b80156110b95780601f1061108e576101008083540402835291602001916110b9565b820191906000526020600020905b81548152906001019060200180831161109c57829003601f168201915b5050505050908060010160009054906101000a900460ff16905082565b6000600154905090565b60015481565b60035481565b60008060009054906101000a900460ff16905090565b600b6020528060005260406000206000915090505481565b6111226121a3565b73ffffffffffffffffffffffffffffffffffffffff166111406111d0565b73ffffffffffffffffffffffffffffffffffffffff1614611196576040517f08c379a000000000000000000000000000000000000000000000000000000000815260040161118d90612922565b60405180910390fd5b6111a060006121ab565b565b6005818051602081018201805184825260208301602085012081835280955050505050506000915090505481565b60008060019054906101000a900473ffffffffffffffffffffffffffffffffffffffff16905090565b60076020528160005260406000206020528060005260406000206000915091505080600001805461122990612dc3565b80601f016020809104026020016040519081016040528092919081815260200182805461125590612dc3565b80156112a25780601f10611277576101008083540402835291602001916112a2565b820191906000526020600020905b81548152906001019060200180831161128557829003601f168201915b5050505050908060010180546112b790612dc3565b80601f01602080910402602001604051908101604052809291908181526020018280546112e390612dc3565b80156113305780601f1061130557610100808354040283529160200191611330565b820191906000526020600020905b81548152906001019060200180831161131357829003601f168201915b5050505050908060020160009054906101000a900460ff16908060020160019054906101000a900473ffffffffffffffffffffffffffffffffffffffff16908060030154905085565b600c602052826000526040600020602052816000526040600020602052806000526040600020600092509250509054906101000a900460ff1681565b60006113bf6110ec565b156113ff576040517f08c379a00000000000000000000000000000000000000000000000000000000081526004016113f690612902565b60405180910390fd5b81600061140b82610fc7565b905060035460066000838152602001908152602001600020600060086000858152602001908152602001600020548152602001908152602001600020600301546114559190612c59565b42101561146157600080fd5b8360006005826040516114749190612804565b908152602001604051809103902054141561148e57600080fd5b84600160048111156114c9577f4e487b7100000000000000000000000000000000000000000000000000000000600052602160045260246000fd5b600460006114d684610fc7565b815260200190815260200160002060010160009054906101000a900460ff16600481111561152d577f4e487b7100000000000000000000000000000000000000000000000000000000600052602160045260246000fd5b1461153757600080fd5b600061154287610fc7565b905060046006600083815260200190815260200160002060006008600085815260200190815260200160002054815260200190815260200160002060020160006101000a81548160ff021916908360048111156115c8577f4e487b7100000000000000000000000000000000000000000000000000000000600052602160045260246000fd5b021790555060006004600083815260200190815260200160002060010160006101000a81548160ff0219169083600481111561162d577f4e487b7100000000000000000000000000000000000000000000000000000000600052602160045260246000fd5b02179055507f68444089a9996fc13685a4c7ed5e2c2c73adea809128297344b2a5e18bb9a38681600860008481526020019081526020016000205489600660008681526020019081526020016000206000600860008881526020019081526020016000205481526020019081526020016000206001016006600087815260200190815260200160002060006008600089815260200190815260200160002054815260200190815260200160002060020160019054906101000a900473ffffffffffffffffffffffffffffffffffffffff1660026001600960008a8152602001908152602001600020546117209190612ce0565b61172a9190612caf565b600b60008981526020019081526020016000205442604051611753989796959493929190612a95565b60405180910390a16000600b600083815260200190815260200160002081905550600195505050505050919050565b60086020528060005260406000206000915090505481565b6117a26121a3565b73ffffffffffffffffffffffffffffffffffffffff166117c06111d0565b73ffffffffffffffffffffffffffffffffffffffff1614611816576040517f08c379a000000000000000000000000000000000000000000000000000000000815260040161180d90612922565b60405180910390fd5b600073ffffffffffffffffffffffffffffffffffffffff168173ffffffffffffffffffffffffffffffffffffffff161415611886576040517f08c379a000000000000000000000000000000000000000000000000000000000815260040161187d906128e2565b60405180910390fd5b61188f816121ab565b50565b60096020528060005260406000206000915090505481565b60006118b46110ec565b156118f4576040517f08c379a00000000000000000000000000000000000000000000000000000000081526004016118eb90612902565b60405180910390fd5b8160006005826040516119079190612804565b908152602001604051809103902054141561192157600080fd5b826001600481111561195c577f4e487b7100000000000000000000000000000000000000000000000000000000600052602160045260246000fd5b6004600061196984610fc7565b815260200190815260200160002060010160009054906101000a900460ff1660048111156119c0577f4e487b7100000000000000000000000000000000000000000000000000000000600052602160045260246000fd5b146119ca57600080fd5b836000600a60006119da84610fc7565b815260200190815260200160002060003373ffffffffffffffffffffffffffffffffffffffff1673ffffffffffffffffffffffffffffffffffffffff1681526020019081526020016000205411611a3057600080fd5b8460001515600c6000611a4284610fc7565b8152602001908152602001600020600060086000611a5f86610fc7565b815260200190815260200160002054815260200190815260200160002060003373ffffffffffffffffffffffffffffffffffffffff1673ffffffffffffffffffffffffffffffffffffffff16815260200190815260200160002060009054906101000a900460ff16151514611ad357600080fd5b6000611ade87610fc7565b90506001600c600083815260200190815260200160002060006008600085815260200190815260200160002054815260200190815260200160002060003373ffffffffffffffffffffffffffffffffffffffff1673ffffffffffffffffffffffffffffffffffffffff16815260200190815260200160002060006101000a81548160ff021916908315150217905550600a600082815260200190815260200160002060003373ffffffffffffffffffffffffffffffffffffffff1673ffffffffffffffffffffffffffffffffffffffff16815260200190815260200160002054600b60008381526020019081526020016000206000828254611be09190612c59565b92505081905550600060026009600084815260200190815260200160002054611c099190612caf565b600b6000848152602001908152602001600020541115611c2857600190505b7fd17c8c0ae2c85b5520a0f987b17cf32f75e6e86c211bc83ada3b989d105ce62d600589604051611c599190612804565b90815260200160405180910390205460086000858152602001908152602001600020548a334286604051611c92969594939291906129be565b60405180910390a160011515811515141561216f5760036006600084815260200190815260200160002060006008600086815260200190815260200160002054815260200190815260200160002060020160006101000a81548160ff02191690836004811115611d2b577f4e487b7100000000000000000000000000000000000000000000000000000000600052602160045260246000fd5b02179055506006600083815260200190815260200160002060006008600085815260200190815260200160002054815260200190815260200160002060076000848152602001908152602001600020600060016009600087815260200190815260200160002054611d9c9190612c59565b81526020019081526020016000206000820181600001908054611dbe90612dc3565b611dc99291906122f6565b506001820181600101908054611dde90612dc3565b611de99291906122f6565b506002820160009054906101000a900460ff168160020160006101000a81548160ff02191690836004811115611e48577f4e487b7100000000000000000000000000000000000000000000000000000000600052602160045260246000fd5b02179055506002820160019054906101000a900473ffffffffffffffffffffffffffffffffffffffff168160020160016101000a81548173ffffffffffffffffffffffffffffffffffffffff021916908373ffffffffffffffffffffffffffffffffffffffff160217905550600382015481600301559050506001600960008481526020019081526020016000206000828254611ee59190612c59565b9250508190555060006004600084815260200190815260200160002060010160006101000a81548160ff02191690836004811115611f4c577f4e487b7100000000000000000000000000000000000000000000000000000000600052602160045260246000fd5b02179055506001600a600084815260200190815260200160002060006006600086815260200190815260200160002060006008600088815260200190815260200160002054815260200190815260200160002060020160019054906101000a900473ffffffffffffffffffffffffffffffffffffffff1673ffffffffffffffffffffffffffffffffffffffff1673ffffffffffffffffffffffffffffffffffffffff168152602001908152602001600020600082825461200c9190612c59565b92505081905550600190507fd21a1a640751a54d3bec1b7d4f61f8dd65fd63c78c5a8cd92abbd9a5c5100ce882600860008581526020019081526020016000205460096000868152602001908152602001600020548b600760008881526020019081526020016000206000600960008a8152602001908152602001600020548152602001908152602001600020600101600760008981526020019081526020016000206000600960008b815260200190815260200160002054815260200190815260200160002060020160019054906101000a900473ffffffffffffffffffffffffffffffffffffffff1660026001600960008c8152602001908152602001600020546121199190612ce0565b6121239190612caf565b600b60008b8152602001908152602001600020544260405161214d99989796959493929190612b21565b60405180910390a16000600b6000848152602001908152602001600020819055505b60019650505050505050919050565b600a602052816000526040600020602052806000526040600020600091509150505481565b600033905090565b60008060019054906101000a900473ffffffffffffffffffffffffffffffffffffffff16905081600060016101000a81548173ffffffffffffffffffffffffffffffffffffffff021916908373ffffffffffffffffffffffffffffffffffffffff1602179055508173ffffffffffffffffffffffffffffffffffffffff168173ffffffffffffffffffffffffffffffffffffffff167f8be0079c531659141344cd1fd0a4f28419497f9722a3daafe3b4186f6b6457e060405160405180910390a35050565b82805461227c90612dc3565b90600052602060002090601f01602090048101928261229e57600085556122e5565b82601f106122b757805160ff19168380011785556122e5565b828001600101855582156122e5579182015b828111156122e45782518255916020019190600101906122c9565b5b5090506122f29190612383565b5090565b82805461230290612dc3565b90600052602060002090601f0160209004810192826123245760008555612372565b82601f106123355780548555612372565b8280016001018555821561237257600052602060002091601f016020900482015b82811115612371578254825591600101919060010190612356565b5b50905061237f9190612383565b5090565b5b8082111561239c576000816000905550600101612384565b5090565b60006123b36123ae84612bed565b612bbc565b9050828152602081018484840111156123cb57600080fd5b6123d6848285612d81565b509392505050565b6000813590506123ed81612f05565b92915050565b600082601f83011261240457600080fd5b81356124148482602086016123a0565b91505092915050565b60008135905061242c81612f1c565b92915050565b60006020828403121561244457600080fd5b6000612452848285016123de565b91505092915050565b60006020828403121561246d57600080fd5b600082013567ffffffffffffffff81111561248757600080fd5b612493848285016123f3565b91505092915050565b600080604083850312156124af57600080fd5b600083013567ffffffffffffffff8111156124c957600080fd5b6124d5858286016123f3565b925050602083013567ffffffffffffffff8111156124f257600080fd5b6124fe858286016123f3565b9150509250929050565b60006020828403121561251a57600080fd5b60006125288482850161241d565b91505092915050565b6000806040838503121561254457600080fd5b60006125528582860161241d565b9250506020612563858286016123de565b9150509250929050565b6000806040838503121561258057600080fd5b600061258e8582860161241d565b925050602061259f8582860161241d565b9150509250929050565b6000806000606084860312156125be57600080fd5b60006125cc8682870161241d565b93505060206125dd8682870161241d565b92505060406125ee868287016123de565b9150509250925092565b61260181612d14565b82525050565b61261081612d26565b82525050565b61261f81612d6f565b82525050565b600061263082612c32565b61263a8185612c3d565b935061264a818560208601612d90565b61265381612ee0565b840191505092915050565b600061266982612c32565b6126738185612c4e565b9350612683818560208601612d90565b80840191505092915050565b6000815461269c81612dc3565b6126a68186612c3d565b945060018216600081146126c157600181146126d357612706565b60ff1983168652602086019350612706565b6126dc85612c1d565b60005b838110156126fe578154818901526001820191506020810190506126df565b808801955050505b50505092915050565b600061271c602683612c3d565b91507f4f776e61626c653a206e6577206f776e657220697320746865207a65726f206160008301527f64647265737300000000000000000000000000000000000000000000000000006020830152604082019050919050565b6000612782601083612c3d565b91507f5061757361626c653a20706175736564000000000000000000000000000000006000830152602082019050919050565b60006127c2602083612c3d565b91507f4f776e61626c653a2063616c6c6572206973206e6f7420746865206f776e65726000830152602082019050919050565b6127fe81612d65565b82525050565b6000612810828461265e565b915081905092915050565b600060208201905061283060008301846125f8565b92915050565b600060208201905061284b6000830184612607565b92915050565b6000604082019050818103600083015261286b8185612625565b905061287a6020830184612616565b9392505050565b600060a082019050818103600083015261289b8188612625565b905081810360208301526128af8187612625565b90506128be6040830186612616565b6128cb60608301856125f8565b6128d860808301846127f5565b9695505050505050565b600060208201905081810360008301526128fb8161270f565b9050919050565b6000602082019050818103600083015261291b81612775565b9050919050565b6000602082019050818103600083015261293b816127b5565b9050919050565b600060208201905061295760008301846127f5565b92915050565b600060a08201905061297260008301886127f5565b81810360208301526129848187612625565b905081810360408301526129988186612625565b90506129a760608301856125f8565b6129b460808301846127f5565b9695505050505050565b600060c0820190506129d360008301896127f5565b6129e060208301886127f5565b81810360408301526129f28187612625565b9050612a0160608301866125f8565b612a0e60808301856127f5565b612a1b60a0830184612607565b979650505050505050565b600060c082019050612a3b60008301896127f5565b612a4860208301886127f5565b8181036040830152612a5a8187612625565b90508181036060830152612a6e8186612625565b9050612a7d60808301856125f8565b612a8a60a08301846127f5565b979650505050505050565b600061010082019050612aab600083018b6127f5565b612ab8602083018a6127f5565b8181036040830152612aca8189612625565b90508181036060830152612ade818861268f565b9050612aed60808301876125f8565b612afa60a08301866127f5565b612b0760c08301856127f5565b612b1460e08301846127f5565b9998505050505050505050565b600061012082019050612b37600083018c6127f5565b612b44602083018b6127f5565b612b51604083018a6127f5565b8181036060830152612b638189612625565b90508181036080830152612b77818861268f565b9050612b8660a08301876125f8565b612b9360c08301866127f5565b612ba060e08301856127f5565b612bae6101008301846127f5565b9a9950505050505050505050565b6000604051905081810181811067ffffffffffffffff82111715612be357612be2612eb1565b5b8060405250919050565b600067ffffffffffffffff821115612c0857612c07612eb1565b5b601f19601f8301169050602081019050919050565b60008190508160005260206000209050919050565b600081519050919050565b600082825260208201905092915050565b600081905092915050565b6000612c6482612d65565b9150612c6f83612d65565b9250827fffffffffffffffffffffffffffffffffffffffffffffffffffffffffffffffff03821115612ca457612ca3612df5565b5b828201905092915050565b6000612cba82612d65565b9150612cc583612d65565b925082612cd557612cd4612e24565b5b828204905092915050565b6000612ceb82612d65565b9150612cf683612d65565b925082821015612d0957612d08612df5565b5b828203905092915050565b6000612d1f82612d45565b9050919050565b60008115159050919050565b6000819050612d4082612ef1565b919050565b600073ffffffffffffffffffffffffffffffffffffffff82169050919050565b6000819050919050565b6000612d7a82612d32565b9050919050565b82818337600083830152505050565b60005b83811015612dae578082015181840152602081019050612d93565b83811115612dbd576000848401525b50505050565b60006002820490506001821680612ddb57607f821691505b60208210811415612def57612dee612e82565b5b50919050565b7f4e487b7100000000000000000000000000000000000000000000000000000000600052601160045260246000fd5b7f4e487b7100000000000000000000000000000000000000000000000000000000600052601260045260246000fd5b7f4e487b7100000000000000000000000000000000000000000000000000000000600052602160045260246000fd5b7f4e487b7100000000000000000000000000000000000000000000000000000000600052602260045260246000fd5b7f4e487b7100000000000000000000000000000000000000000000000000000000600052604160045260246000fd5b6000601f19601f8301169050919050565b60058110612f0257612f01612e53565b5b50565b612f0e81612d14565b8114612f1957600080fd5b50565b612f2581612d65565b8114612f3057600080fd5b5056fea26469706673582212205a6aa15d0c18753f86f6d5c298986db0277846cc9af7cf87715e38f11d0190be64736f6c63430008000033",
  "immutableReferences": {},
  "source": "\n// SPDX-License-Identifier: MIT\npragma solidity 0.8.0;\n\n/// @title WhatIs: Community Content Development\n/// @author Shane Auerbach\n/// @notice This was an educational exercise. Do not use this contract beyond testing/exposition.\n/// @dev This contract has many design flaws and no gas optimization.\n\n/// @notice We import Ownable for general admin tooling/functions\nimport \"@openzeppelin/contracts/access/Ownable.sol\";\n\n/// @notice We import Pausable so that the contract can be paused\nimport \"@openzeppelin/contracts/security/Pausable.sol\";\n\ncontract WhatIs is Pausable, Ownable {\n\n  /// @dev Creates a structure for each content subject (a \"What\")\n  /// @param name The name is the subject\n  /// @param state The state records whether it is open to new entries or in a voting phase\n  struct What { \n    string name;\n    State state;\n  }\n\n  /// @dev Creates a structure for each content entry (an \"Entry\")\n  /// @param what The subject/\"What\" the entry is associated with\n  /// @param content The content a user wants to contribute to that subject\n  /// @param state The state records whether the entry is proposed, accepted, or rejected\n  /// @param proposer The address of the user who proposed the entry\n  /// @param proposedTimestamp A timestamp of when the entry was proposed\n  struct Entry { \n    string what;\n    string content;\n    State state;\n    address proposer;\n    uint proposedTimestamp;\n  }\n  \n  /// @notice whatCount tracks the number of subjects that have been created\n  uint public whatCount;\n\n  /// @dev States for Whats (subjects) and Entrys (contributions) are combined in the same enum.\n  enum State{Open, Voting, Proposed, Accepted, Rejected}\n\n  /// @notice maxEntryBytes defines the max length of an Entry\n  uint public maxEntryBytes = 10;\n\n  /// @notice voteDuration defines the minimum seconds a vote must remain open before the entry can be rejected\n  uint public voteDuration = 86400;\n\n  /// @notice whats and ids are a bidirectional mapping between subjects \"whats\" and integer ids\n  mapping (uint => What) public whats;\n  mapping (string => uint) public ids;\n\n  /// @notice proposedEntries tracks contributions by their own id and the id of their \"what\"\n  mapping(uint => mapping(uint => Entry)) public proposedEntries;\n\n  /// @notice acceptedEntries tracks contributions by their own id and the id of their \"what\"\n  mapping(uint => mapping(uint => Entry)) public acceptedEntries;\n\n  /// @notice proposedEntriedCount and acceptedEntriesCount count entries for each \"what\"\n  mapping(uint => uint) public proposedEntriesCount;\n  mapping(uint => uint) public acceptedEntriesCount;\n\n  /// @notice ownership tracks how many accepted contributions each \"what\" has from each contributor\n  mapping(uint => mapping(address => uint)) public ownership;\n\n  /// @notice votes tracks how many votes each active entry has for each what\n  /// @notice each \"what\" can have at most one entry at a time, and its vote count is reset to zero after each vote\n  mapping(uint => uint) public votes;\n\n  /// @notice tracks for each what and entry whether an address has already voted\n  mapping(uint => mapping(uint => mapping(address => bool))) public voted;\n\n  \n  /// @notice LogWhatCreated fires whenever a new subject/\"what\" is created\n  /// @param id the integer ID of the \"what\"\n  /// @param name the name of the \"what\"\n  /// @param entry the first content associated with the what, added at creation\n  /// @param creator the address of the person who created the \"what\"\n  /// @param createdTimestamp the timestamp when the what was submitted\n  event LogWhatCreated(\n    uint id, \n    string name, \n    string entry, \n    address creator,\n    uint createdTimestamp\n    );\n\n  /// @notice LogEntryProposed fires whenever a new entry is proposed to an existing subject/\"What\"\n  /// @param what_id the integer ID of the \"what\"\n  /// @param proposed_entry_id the integer ID of the entry\n  /// @param name the name of the \"what\"\n  /// @param entry the proposed content as a string\n  /// @param proposer the address of the person who created the entry\n  /// @param proposedTimestamp the timestamp when the entry was proposed\n  event LogEntryProposed(\n    uint what_id, \n    uint proposed_entry_id, \n    string name, \n    string entry, \n    address proposer, \n    uint proposedTimestamp\n    );\n\n  /// @notice LogVoted fires whenever a contributor votes on a proposed entry\n  /// @notice You only vote for a proposal, not against. A non-vote is implicitly against\n  /// @param what_id the integer ID of the \"what\" being voted on\n  /// @param proposed_entry_id the integer ID of the entry being vcted on\n  /// @param name the name of the \"what\"\n  /// @param voter the address of the user who voted\n  /// @param votedTimestamp the timestamp when the vote was made\n  /// @param pivotal a boolean that's true when a vote passes the threshold for entry acceptance\n  event LogVoted(\n    uint what_id, \n    uint proposed_entry_id, \n    string name, \n    address voter, \n    uint votedTimestamp,\n    bool pivotal\n    );\n\n  /// @notice LogEntryAccepted fires whenever an entry meets the required vote threshold and is accepted\n  /// @notice There is no entry acceptance function. Acceptance is automatic when the vote threshold is met\n  /// @param what_id the integer ID of the \"what\" being voted on\n  /// @param proposed_entry_id the integer ID of the entry being voted on\n  /// @param accepted_entry_id a new accepted entry integer ID assigned upon acceptance\n  /// @param name the name of the \"what\"\n  /// @param content the content of the accepted entry\n  /// @param proposer the address of the user who proposed the entry\n  /// @param votesRequired the number of votes required for acceptance\n  /// @param votesReceived the number of votes received\n  /// @param acceptedTimestamp the timestamp when the entry was accepted\n  event LogEntryAccepted(\n    uint what_id, \n    uint proposed_entry_id,\n    uint accepted_entry_id,\n    string name, \n    string content,\n    address proposer,\n    uint votesRequired,\n    uint votesReceived,\n    uint acceptedTimestamp\n    );\n\n  /// @notice LogEntryRejected fires whenever an entry is rejected.\n  /// @notice Entry rejection is not automatic. Any user can trigger rejection once the minimum vote duration has passed\n  /// @param what_id the integer ID of the \"what\" being voted on\n  /// @param proposed_entry_id the integer ID of the entry being voted on\n  /// @param name the name of the \"what\"\n  /// @param content the content of the accepted entry\n  /// @param proposer the address of the user who proposed the entry\n  /// @param votesRequired the number of votes required for acceptance\n  /// @param votesReceived the number of votes received\n  /// @param rejectedTimestamp the timestamp when the entry was rejected\n  event LogEntryRejected(\n    uint what_id, \n    uint proposed_entry_id,\n    string name, \n    string content,\n    address proposer,\n    uint votesRequired,\n    uint votesReceived,\n    uint rejectedTimestamp\n    );\n\n  /// @notice doesNotExists checks that a subject/\"what\" doesn't already exist\n  modifier doesNotExist (string memory _name) { \n    // c\n    require(ids[_name] == 0);\n    _;\n  }\n\n  /// @notice doesExist checks that a subject/\"what\" does already exist\n  modifier doesExist (string memory _name) { \n    require(ids[_name] != 0);\n    _;\n  }\n\n  /// @notice meetsLengthLimits checks that an entry is not beyond the maxEntryBytes length\n  modifier meetsLengthLimits (string memory _entry) { \n    require(bytes(_entry).length <= maxEntryBytes);\n    _;\n  }\n\n  /// @notice isOpen checks that a subject/\"what\" is open for a new entry proposal, i.e. not in voting\n  modifier isOpen (string memory _name) { \n    require(whats[getWhatID(_name)].state == State.Open);\n    _;\n  }\n\n  /// @notice isVoting checks whether a subject/\"what\" is open for voting, i.e. has an active proposed entry\n  modifier isVoting (string memory _name) { \n    require(whats[getWhatID(_name)].state == State.Voting);\n    _;\n  }\n\n  /// @notice isOwner checks whether a voter has accepted entries for the \"what\" and is thereby entitled to vote\n  /// @notice Do not confuse this contract's internal ownership isOwner with the imported OpenZeppelin onlyOwner\n  modifier isOwner (string memory _name) { \n    require(ownership[getWhatID(_name)][msg.sender] > 0);\n    _;\n  }\n\n  /// @notice hasNotAlreadyVoted checks that a voter has not already voted on an active proposed entry\n  modifier hasNotAlreadyVoted (string memory _name) { \n    require(voted[getWhatID(_name)][proposedEntriesCount[getWhatID(_name)]][msg.sender] == false);\n    _;\n  }\n\n  /// @notice isExpired checks whether a vote has already been active for the minimum duration, i.e. whether the entry can be rejected\n  modifier isExpired (string memory _name) { \n    uint id = getWhatID(_name);\n    require(block.timestamp >= proposedEntries[id][proposedEntriesCount[id]].proposedTimestamp + voteDuration);\n    _;\n  }\n\n  constructor() Pausable() Ownable() {}\n\n  /// @notice createWhat creates a new subject and writes the first entry\n  /// @param _name the name of the new \"what\" subject. Must be new/unique\n  /// @param _entry the string content of the first entry. Must not be above length limit\n  /// @return returns true when successful\n  function createWhat(string memory _name, string memory _entry) \n    public \n    whenNotPaused()\n    doesNotExist(_name) \n    meetsLengthLimits(_entry)\n    returns (bool) \n    {\n    // 1. Create the What and set its state to Open\n    whats[whatCount+1].name = _name;\n    whats[whatCount+1].state = State.Open;\n    // 2. Write the entry and mark the ownership\n    ids[_name] = whatCount+1;\n    ownership[whatCount+1][msg.sender] = 1;\n    proposedEntries[whatCount+1][1] = Entry({\n      what: _name,\n      content: _entry,\n      state: State.Accepted,\n      proposer: msg.sender,\n      proposedTimestamp: block.timestamp\n    });\n    acceptedEntries[whatCount+1][1] = Entry({\n      what: _name,\n      content: _entry,\n      state: State.Accepted,\n      proposer: msg.sender,\n      proposedTimestamp: block.timestamp\n    });\n    // 3. Advance the counters\n    proposedEntriesCount[whatCount+1] = 1;\n    acceptedEntriesCount[whatCount+1] = 1;\n    whatCount += 1;\n    // 4. Emit the event\n    emit LogWhatCreated(ids[_name],_name, _entry, msg.sender, block.timestamp);\n    // 5. Return true\n    return true;\n    }\n\n  /// @notice getWhatID is a helper function to get the integer ID for a \"what\" given its string name\n  /// @param _name the string name of the \"what\" subject for which we want the integer ID\n  /// @return returns the integer ID for the \"what\"\n  function getWhatID(string memory _name)\n    public\n    view \n    doesExist(_name)\n    returns (uint)\n    {\n      return ids[_name];\n    }\n\n  /// @notice getWhatCount is a helper function to get the total number of subjects created\n  /// @return returns the total number of subjects created\n  function getWhatCount()\n    public\n    view\n    returns (uint)\n    {\n      return whatCount;\n    }\n\n  /// @notice proposeEntry proposes a new entry to an existing subject/\"what\"\n  /// @param _name the name of the \"what\"/subject. Must already exist\n  /// @param _entry the string content of the proposed entry. Must not be above length limit\n  /// @return returns true when successful\n  function proposeEntry(string memory _name, string memory _entry)\n    public\n    whenNotPaused()\n    doesExist(_name)\n    isOpen(_name)\n    meetsLengthLimits(_entry)\n    returns (bool)\n    {\n      uint id = getWhatID(_name);\n      // 1. Write the proposed entry\n      proposedEntries[id][proposedEntriesCount[id]+1] = Entry({\n        what: _name,\n        content: _entry,\n        state: State.Proposed,\n        proposer: msg.sender,\n        proposedTimestamp: block.timestamp\n      });\n      // 2. Advance the counter\n      proposedEntriesCount[id] += 1;\n      // 3. Transition the What's state from Open to Voting\n      whats[id].state = State.Voting;\n      // 4. Emit the event\n      emit LogEntryProposed(id,proposedEntriesCount[id], _name, _entry, msg.sender, block.timestamp);\n      return true;\n    }\n\n  /// @notice vote submits a vote in favor of a proposed entry\n  /// @notice You do not vote against a proposed entry. Not voting is a vote against\n  /// @notice The vote function also accepts the proposed entry if the vote is pivotal, i.e. crosses the threshold\n  /// @notice You don't have to specify the entry when you vote, as each subject/\"what\" has only one active proposed entry at a time\n  /// @notice Voters get one vote per entry they have had accepted to the \"what\". Calling vote once assigns all of a user's votes in favor of the proposed entry\n  /// @param _name the name of the \"what\"/subject. Must already exist and be in Voting state.\n  /// @return returns true when successful\n  function vote(string memory _name)\n    public\n    whenNotPaused()\n    doesExist(_name)\n    isVoting(_name)\n    isOwner(_name)\n    hasNotAlreadyVoted(_name)\n    returns (bool)\n    {\n      uint id = getWhatID(_name);\n      // 1. Track that the user has voted and count the vote(s)\n      voted[id][proposedEntriesCount[id]][msg.sender]=true;\n      votes[id] += ownership[id][msg.sender];\n      // 2. Check if the vote was pivotal, i.e. whether the proposed entry becomes accepted\n      bool pivotal = false;\n      if (votes[id] > acceptedEntriesCount[id]/2) {\n        pivotal = true;\n      }\n      // 3. Emit the LogVoted event\n      emit LogVoted(ids[_name],proposedEntriesCount[id],_name, msg.sender, block.timestamp, pivotal);\n      // 4. If the vote(s) is/are pivotal, terminate the vote and accept the entry\n      if (pivotal == true) {\n        // Accept the entry\n        proposedEntries[id][proposedEntriesCount[id]].state = State.Accepted;\n        acceptedEntries[id][acceptedEntriesCount[id]+1] = proposedEntries[id][proposedEntriesCount[id]];\n        acceptedEntriesCount[id] += 1;\n        // Put the What back in an open state\n        whats[id].state = State.Open;\n        // Credit the proposer with an ownership token\n        ownership[id][proposedEntries[id][proposedEntriesCount[id]].proposer] += 1;\n        pivotal = true;\n        // Emit the LogEntryAcceptedEvent\n        emit LogEntryAccepted(id,proposedEntriesCount[id],acceptedEntriesCount[id],\n         _name, acceptedEntries[id][acceptedEntriesCount[id]].content, \n         acceptedEntries[id][acceptedEntriesCount[id]].proposer,\n         (acceptedEntriesCount[id]-1)/2, votes[id], block.timestamp);\n        // Reset the votes to zero for the next proposed entry\n        votes[id] = 0;\n      }\n      return true;\n    }\n\n  /// @notice rejectEntry rejects a proposed entry if the vote threshold is not met and the minimum duration has elapsed\n  /// @notice Any user can reject an entry provided conditions are met\n  /// @param _name the name of the \"what\"/subject. Must already exist and be in Voting state.\n  /// @return returns true when successful\n  function rejectEntry(string memory _name)\n    public \n    whenNotPaused()\n    isExpired(_name)\n    doesExist(_name)\n    isVoting(_name)\n    returns (bool)\n    {\n      uint id = getWhatID(_name);\n      // 1. Mark the entry as rejected\n      proposedEntries[id][proposedEntriesCount[id]].state = State.Rejected;\n      // 2. Reopen the what\n      whats[id].state = State.Open;\n      // 3. Emit the LogEntryRejected event\n      emit LogEntryRejected(id,proposedEntriesCount[id],\n         _name, proposedEntries[id][proposedEntriesCount[id]].content, \n          proposedEntries[id][proposedEntriesCount[id]].proposer,\n         (acceptedEntriesCount[id]-1)/2, votes[id], block.timestamp);\n      votes[id] = 0;\n      return true;\n    }\n}",
  "sourcePath": "/home/shaneauerbach/github/blockchain-developer-bootcamp-final-project/contracts/WhatIs.sol",
  "compiler": {
    "name": "solc",
    "version": "0.8.0+commit.c7dfd78e.Emscripten.clang"
  },
  "schemaVersion": "3.4.3",
  "updatedAt": "2021-11-09T19:56:19.759Z",
  "networkType": "ethereum",
  "devdoc": {
    "events": {
      "LogEntryAccepted(uint256,uint256,uint256,string,string,address,uint256,uint256,uint256)": {
        "params": {
          "acceptedTimestamp": "the timestamp when the entry was accepted",
          "accepted_entry_id": "a new accepted entry integer ID assigned upon acceptance",
          "content": "the content of the accepted entry",
          "name": "the name of the \"what\"",
          "proposed_entry_id": "the integer ID of the entry being voted on",
          "proposer": "the address of the user who proposed the entry",
          "votesReceived": "the number of votes received",
          "votesRequired": "the number of votes required for acceptance",
          "what_id": "the integer ID of the \"what\" being voted on"
        }
      },
      "LogEntryProposed(uint256,uint256,string,string,address,uint256)": {
        "params": {
          "entry": "the proposed content as a string",
          "name": "the name of the \"what\"",
          "proposedTimestamp": "the timestamp when the entry was proposed",
          "proposed_entry_id": "the integer ID of the entry",
          "proposer": "the address of the person who created the entry",
          "what_id": "the integer ID of the \"what\""
        }
      },
      "LogEntryRejected(uint256,uint256,string,string,address,uint256,uint256,uint256)": {
        "params": {
          "content": "the content of the accepted entry",
          "name": "the name of the \"what\"",
          "proposed_entry_id": "the integer ID of the entry being voted on",
          "proposer": "the address of the user who proposed the entry",
          "rejectedTimestamp": "the timestamp when the entry was rejected",
          "votesReceived": "the number of votes received",
          "votesRequired": "the number of votes required for acceptance",
          "what_id": "the integer ID of the \"what\" being voted on"
        }
      },
      "LogVoted(uint256,uint256,string,address,uint256,bool)": {
        "params": {
          "name": "the name of the \"what\"",
          "pivotal": "a boolean that's true when a vote passes the threshold for entry acceptance",
          "proposed_entry_id": "the integer ID of the entry being vcted on",
          "votedTimestamp": "the timestamp when the vote was made",
          "voter": "the address of the user who voted",
          "what_id": "the integer ID of the \"what\" being voted on"
        }
      },
      "LogWhatCreated(uint256,string,string,address,uint256)": {
        "params": {
          "createdTimestamp": "the timestamp when the what was submitted",
          "creator": "the address of the person who created the \"what\"",
          "entry": "the first content associated with the what, added at creation",
          "id": "the integer ID of the \"what\"",
          "name": "the name of the \"what\""
        }
      }
    },
    "kind": "dev",
    "methods": {
      "createWhat(string,string)": {
        "params": {
          "_entry": "the string content of the first entry. Must not be above length limit",
          "_name": "the name of the new \"what\" subject. Must be new/unique"
        },
        "returns": {
          "_0": "returns true when successful"
        }
      },
      "getWhatCount()": {
        "returns": {
          "_0": "returns the total number of subjects created"
        }
      },
      "getWhatID(string)": {
        "params": {
          "_name": "the string name of the \"what\" subject for which we want the integer ID"
        },
        "returns": {
          "_0": "returns the integer ID for the \"what\""
        }
      },
      "owner()": {
        "details": "Returns the address of the current owner."
      },
      "paused()": {
        "details": "Returns true if the contract is paused, and false otherwise."
      },
      "proposeEntry(string,string)": {
        "params": {
          "_entry": "the string content of the proposed entry. Must not be above length limit",
          "_name": "the name of the \"what\"/subject. Must already exist"
        },
        "returns": {
          "_0": "returns true when successful"
        }
      },
      "rejectEntry(string)": {
        "params": {
          "_name": "the name of the \"what\"/subject. Must already exist and be in Voting state."
        },
        "returns": {
          "_0": "returns true when successful"
        }
      },
      "renounceOwnership()": {
        "details": "Leaves the contract without owner. It will not be possible to call `onlyOwner` functions anymore. Can only be called by the current owner. NOTE: Renouncing ownership will leave the contract without an owner, thereby removing any functionality that is only available to the owner."
      },
      "transferOwnership(address)": {
        "details": "Transfers ownership of the contract to a new account (`newOwner`). Can only be called by the current owner."
      },
      "vote(string)": {
        "params": {
          "_name": "the name of the \"what\"/subject. Must already exist and be in Voting state."
        },
        "returns": {
          "_0": "returns true when successful"
        }
      }
    },
    "version": 1
  },
  "userdoc": {
    "events": {
      "LogEntryAccepted(uint256,uint256,uint256,string,string,address,uint256,uint256,uint256)": {
        "notice": "LogEntryAccepted fires whenever an entry meets the required vote threshold and is acceptedThere is no entry acceptance function. Acceptance is automatic when the vote threshold is met"
      },
      "LogEntryProposed(uint256,uint256,string,string,address,uint256)": {
        "notice": "LogEntryProposed fires whenever a new entry is proposed to an existing subject/\"What\""
      },
      "LogEntryRejected(uint256,uint256,string,string,address,uint256,uint256,uint256)": {
        "notice": "LogEntryRejected fires whenever an entry is rejected.Entry rejection is not automatic. Any user can trigger rejection once the minimum vote duration has passed"
      },
      "LogVoted(uint256,uint256,string,address,uint256,bool)": {
        "notice": "LogVoted fires whenever a contributor votes on a proposed entryYou only vote for a proposal, not against. A non-vote is implicitly against"
      },
      "LogWhatCreated(uint256,string,string,address,uint256)": {
        "notice": "LogWhatCreated fires whenever a new subject/\"what\" is created"
      }
    },
    "kind": "user",
    "methods": {
      "acceptedEntries(uint256,uint256)": {
        "notice": "acceptedEntries tracks contributions by their own id and the id of their \"what\""
      },
      "createWhat(string,string)": {
        "notice": "createWhat creates a new subject and writes the first entry"
      },
      "getWhatCount()": {
        "notice": "getWhatCount is a helper function to get the total number of subjects created"
      },
      "getWhatID(string)": {
        "notice": "getWhatID is a helper function to get the integer ID for a \"what\" given its string name"
      },
      "maxEntryBytes()": {
        "notice": "maxEntryBytes defines the max length of an Entry"
      },
      "ownership(uint256,address)": {
        "notice": "ownership tracks how many accepted contributions each \"what\" has from each contributor"
      },
      "proposeEntry(string,string)": {
        "notice": "proposeEntry proposes a new entry to an existing subject/\"what\""
      },
      "proposedEntries(uint256,uint256)": {
        "notice": "proposedEntries tracks contributions by their own id and the id of their \"what\""
      },
      "proposedEntriesCount(uint256)": {
        "notice": "proposedEntriedCount and acceptedEntriesCount count entries for each \"what\""
      },
      "rejectEntry(string)": {
        "notice": "rejectEntry rejects a proposed entry if the vote threshold is not met and the minimum duration has elapsedAny user can reject an entry provided conditions are met"
      },
      "vote(string)": {
        "notice": "vote submits a vote in favor of a proposed entryYou do not vote against a proposed entry. Not voting is a vote againstThe vote function also accepts the proposed entry if the vote is pivotal, i.e. crosses the thresholdYou don't have to specify the entry when you vote, as each subject/\"what\" has only one active proposed entry at a timeVoters get one vote per entry they have had accepted to the \"what\". Calling vote once assigns all of a user's votes in favor of the proposed entry"
      },
      "voteDuration()": {
        "notice": "voteDuration defines the minimum seconds a vote must remain open before the entry can be rejected"
      },
      "voted(uint256,uint256,address)": {
        "notice": "tracks for each what and entry whether an address has already voted"
      },
      "votes(uint256)": {
        "notice": "votes tracks how many votes each active entry has for each whateach \"what\" can have at most one entry at a time, and its vote count is reset to zero after each vote"
      },
      "whatCount()": {
        "notice": "whatCount tracks the number of subjects that have been created"
      },
      "whats(uint256)": {
        "notice": "whats and ids are a bidirectional mapping between subjects \"whats\" and integer ids"
      }
    },
    "version": 1
  }
}